{
  "contractName": "bidfinex",
  "abi": [
    {
      "constant": true,
      "inputs": [
        {
          "name": "",
          "type": "address"
        },
        {
          "name": "",
          "type": "uint256"
        }
      ],
      "name": "auctionRefunds",
      "outputs": [
        {
          "name": "",
          "type": "uint256"
        }
      ],
      "payable": false,
      "stateMutability": "view",
      "type": "function"
    },
    {
      "constant": true,
      "inputs": [
        {
          "name": "",
          "type": "address"
        },
        {
          "name": "",
          "type": "uint256"
        }
      ],
      "name": "auctionBidderMap",
      "outputs": [
        {
          "name": "",
          "type": "uint256"
        }
      ],
      "payable": false,
      "stateMutability": "view",
      "type": "function"
    },
    {
      "constant": true,
      "inputs": [
        {
          "name": "",
          "type": "uint256"
        }
      ],
      "name": "auctions",
      "outputs": [
        {
          "name": "seller",
          "type": "address"
        },
        {
          "name": "title",
          "type": "string"
        },
        {
          "name": "auctionId",
          "type": "uint256"
        },
        {
          "name": "description",
          "type": "string"
        },
        {
          "name": "status",
          "type": "uint8"
        },
        {
          "name": "deadline",
          "type": "uint256"
        },
        {
          "name": "startingPrice",
          "type": "uint256"
        },
        {
          "name": "reservedPrice",
          "type": "uint256"
        },
        {
          "name": "currentBid",
          "type": "uint256"
        }
      ],
      "payable": false,
      "stateMutability": "view",
      "type": "function"
    },
    {
      "constant": true,
      "inputs": [
        {
          "name": "",
          "type": "address"
        },
        {
          "name": "",
          "type": "uint256"
        }
      ],
      "name": "auctionOwnerMap",
      "outputs": [
        {
          "name": "",
          "type": "uint256"
        }
      ],
      "payable": false,
      "stateMutability": "view",
      "type": "function"
    },
    {
      "inputs": [],
      "payable": false,
      "stateMutability": "nonpayable",
      "type": "constructor"
    },
    {
      "anonymous": false,
      "inputs": [
        {
          "indexed": false,
          "name": "message",
          "type": "string"
        }
      ],
      "name": "throwError",
      "type": "event"
    },
    {
      "anonymous": false,
      "inputs": [
        {
          "indexed": false,
          "name": "id",
          "type": "uint256"
        },
        {
          "indexed": false,
          "name": "title",
          "type": "string"
        },
        {
          "indexed": false,
          "name": "startingPrice",
          "type": "uint256"
        },
        {
          "indexed": false,
          "name": "reservePrice",
          "type": "uint256"
        }
      ],
      "name": "auctionCreated",
      "type": "event"
    },
    {
      "anonymous": false,
      "inputs": [
        {
          "indexed": false,
          "name": "id",
          "type": "uint256"
        }
      ],
      "name": "auctionStarted",
      "type": "event"
    },
    {
      "anonymous": false,
      "inputs": [
        {
          "indexed": false,
          "name": "id",
          "type": "uint256"
        }
      ],
      "name": "auctionCancelled",
      "type": "event"
    },
    {
      "anonymous": false,
      "inputs": [
        {
          "indexed": false,
          "name": "auctionId",
          "type": "uint256"
        },
        {
          "indexed": false,
          "name": "bidder",
          "type": "address"
        },
        {
          "indexed": false,
          "name": "amount",
          "type": "uint256"
        }
      ],
      "name": "bidPlaced",
      "type": "event"
    },
    {
      "anonymous": false,
      "inputs": [
        {
          "indexed": false,
          "name": "auctionId",
          "type": "uint256"
        },
        {
          "indexed": false,
          "name": "winningBidder",
          "type": "address"
        },
        {
          "indexed": false,
          "name": "amount",
          "type": "uint256"
        }
      ],
      "name": "auctionSold",
      "type": "event"
    },
    {
      "anonymous": false,
      "inputs": [
        {
          "indexed": false,
          "name": "auctionId",
          "type": "uint256"
        },
        {
          "indexed": false,
          "name": "topBid",
          "type": "uint256"
        },
        {
          "indexed": false,
          "name": "reservePrice",
          "type": "uint256"
        }
      ],
      "name": "auctionUnsold",
      "type": "event"
    },
    {
      "constant": false,
      "inputs": [
        {
          "name": "_title",
          "type": "string"
        },
        {
          "name": "_description",
          "type": "string"
        },
        {
          "name": "_deadline",
          "type": "uint256"
        },
        {
          "name": "_startingPrice",
          "type": "uint256"
        },
        {
          "name": "_reservedPrice",
          "type": "uint256"
        }
      ],
      "name": "createAuction",
      "outputs": [
        {
          "name": "id",
          "type": "uint256"
        }
      ],
      "payable": false,
      "stateMutability": "nonpayable",
      "type": "function"
    }
  ],
  "bytecode": "0x6060604052341561000f57600080fd5b33600460006101000a81548173ffffffffffffffffffffffffffffffffffffffff021916908373ffffffffffffffffffffffffffffffffffffffff160217905550610b488061005f6000396000f30060606040526004361061006d576000357c0100000000000000000000000000000000000000000000000000000000900463ffffffff1680630e23db54146100725780633efe3146146100c8578063571a26a01461011e5780635800eafa146102cb578063c838ef2c1461039a575b600080fd5b341561007d57600080fd5b6100b2600480803573ffffffffffffffffffffffffffffffffffffffff169060200190919080359060200190919050506103f0565b6040518082815260200191505060405180910390f35b34156100d357600080fd5b610108600480803573ffffffffffffffffffffffffffffffffffffffff16906020019091908035906020019091905050610421565b6040518082815260200191505060405180910390f35b341561012957600080fd5b61013f6004808035906020019091905050610452565b604051808a73ffffffffffffffffffffffffffffffffffffffff1673ffffffffffffffffffffffffffffffffffffffff168152602001806020018981526020018060200188600281111561018f57fe5b60ff16815260200187815260200186815260200185815260200184815260200183810383528b8181546001816001161561010002031660029004815260200191508054600181600116156101000203166002900480156102305780601f1061020557610100808354040283529160200191610230565b820191906000526020600020905b81548152906001019060200180831161021357829003601f168201915b50508381038252898181546001816001161561010002031660029004815260200191508054600181600116156101000203166002900480156102b35780601f10610288576101008083540402835291602001916102b3565b820191906000526020600020905b81548152906001019060200180831161029657829003601f168201915b50509b50505050505050505050505060405180910390f35b34156102d657600080fd5b610384600480803590602001908201803590602001908080601f0160208091040260200160405190810160405280939291908181526020018383808284378201915050505050509190803590602001908201803590602001908080601f016020809104026020016040519081016040528093929190818152602001838380828437820191505050505050919080359060200190919080359060200190919080359060200190919050506104da565b6040518082815260200191505060405180910390f35b34156103a557600080fd5b6103da600480803573ffffffffffffffffffffffffffffffffffffffff16906020019091908035906020019091905050610874565b6040518082815260200191505060405180910390f35b60006020528160005260406000208181548110151561040b57fe5b9060005260206000209001600091509150505481565b60026020528160005260406000208181548110151561043c57fe5b9060005260206000209001600091509150505481565b60038181548110151561046157fe5b90600052602060002090600a02016000915090508060000160009054906101000a900473ffffffffffffffffffffffffffffffffffffffff1690806001019080600201549080600301908060040160009054906101000a900460ff16908060050154908060060154908060070154908060080154905089565b6000808443101515610553577fe93b6b241154b74690ce495fa4b632a330efb4fbe4ba969ca89eeefce8f4719f6040518080602001828103825260188152602001807f496e76616c696420646561646c696e6520656e7465726564000000000000000081525060200191505060405180910390a1600080fd5b60008410806105625750600083105b8061056c57508383105b15610604577fe93b6b241154b74690ce495fa4b632a330efb4fbe4ba969ca89eeefce8f4719f6040518080602001828103825260278152602001807f496e76616c69642076616c756520656e746572656420666f722070726963652081526020017f73656374696f6e0000000000000000000000000000000000000000000000000081525060400191505060405180910390a1600080fd5b6003805480919060010161061891906108a5565b915060038281548110151561062957fe5b90600052602060002090600a02019050338160000160006101000a81548173ffffffffffffffffffffffffffffffffffffffff021916908373ffffffffffffffffffffffffffffffffffffffff160217905550868160010190805190602001906106949291906108d7565b50818160020181905550858160030190805190602001906106b69291906108d7565b5060008160040160006101000a81548160ff021916908360028111156106d857fe5b0217905550848160050181905550838160060181905550828160070181905550828160080181905550600160008260000160009054906101000a900473ffffffffffffffffffffffffffffffffffffffff1673ffffffffffffffffffffffffffffffffffffffff1673ffffffffffffffffffffffffffffffffffffffff16815260200190815260200160002080548060010182816107769190610957565b9160005260206000209001600084909190915055507f3913e02939edbf80317fb8918381046a1077ae115a5a3a3e1d8551874d53b3c182826001018360060154846007015460405180858152602001806020018481526020018381526020018281038252858181546001816001161561010002031660029004815260200191508054600181600116156101000203166002900480156108565780601f1061082b57610100808354040283529160200191610856565b820191906000526020600020905b81548152906001019060200180831161083957829003601f168201915b50509550505050505060405180910390a18191505095945050505050565b60016020528160005260406000208181548110151561088f57fe5b9060005260206000209001600091509150505481565b8154818355818115116108d257600a0281600a0283600052602060002091820191016108d19190610983565b5b505050565b828054600181600116156101000203166002900490600052602060002090601f016020900481019282601f1061091857805160ff1916838001178555610946565b82800160010185558215610946579182015b8281111561094557825182559160200191906001019061092a565b5b5090506109539190610a35565b5090565b81548183558181151161097e5781836000526020600020918201910161097d9190610a35565b5b505050565b610a3291905b80821115610a2e57600080820160006101000a81549073ffffffffffffffffffffffffffffffffffffffff02191690556001820160006109c99190610a5a565b60028201600090556003820160006109e19190610a5a565b6004820160006101000a81549060ff02191690556005820160009055600682016000905560078201600090556008820160009055600982016000610a259190610aa2565b50600a01610989565b5090565b90565b610a5791905b80821115610a53576000816000905550600101610a3b565b5090565b90565b50805460018160011615610100020316600290046000825580601f10610a805750610a9f565b601f016020900490600052602060002090810190610a9e9190610a35565b5b50565b5080546000825560030290600052602060002090810190610ac39190610ac6565b50565b610b1991905b80821115610b1557600080820160006101000a81549073ffffffffffffffffffffffffffffffffffffffff02191690556001820160009055600282016000905550600301610acc565b5090565b905600a165627a7a723058201df5fcf7523ecf3c00acf886e749a87997da248d46c07d0dc64a5149f59c536c0029",
  "source": "pragma solidity ^0.4.19;\n\ncontract bidfinex {\n    \n    struct bid\n    {\n        address bidder;\n        uint256 amount;\n        uint timestamp;\n    }\n\n    enum auctionStatus { Pending, Live, Dead }\n\n    struct auction {\n        address seller;\n        string title;\n        uint auctionId;\n        string description;\n        auctionStatus status;\n        uint deadline; //Deadline will be block number as contract will not have access to time and date.\n        \n        //Price will be in wei a unit of gas.\n        uint256 startingPrice;\n        uint256 reservedPrice;\n        uint256 currentBid;\n\n        bid[] bids;\n    }\n\n    mapping(address => uint[]) public auctionRefunds;\n    mapping(address => uint[]) public auctionOwnerMap;\n    mapping(address => uint[]) public auctionBidderMap;\n    \n    auction[] public auctions;\n    address owner;\n    \n    modifier onlySeller (uint auctionId) {\n        if (auctions[auctionId].seller != msg.sender)\n        revert();\n        _;\n    }\n    \n    modifier onlyOwner {\n        if (owner != msg.sender)\n        revert();\n        _;\n    }\n\n    modifier onlyActive (uint auctionId) {\n        auction memory temp = auctions[auctionId];\n        \n        if (temp.status != auctionStatus.Live)\n        revert();\n\n        else if (block.number >= temp.deadline)\n        revert();\n        \n        _;\n    }\n\n    event throwError(string message);\n    event auctionCreated(uint id, string title, uint256 startingPrice, uint256 reservePrice);\n    event auctionStarted(uint id);\n    event auctionCancelled(uint id);\n    event bidPlaced(uint auctionId, address bidder, uint256 amount);\n    event auctionSold(uint auctionId, address winningBidder, uint256 amount);\n    event auctionUnsold(uint auctionId, uint256 topBid, uint256 reservePrice);\n\n    function bidfinex() public {\n        owner = msg.sender;\n    }\n\n    function createAuction( string _title,\n                            string _description,\n                            uint _deadline,\n                            uint256 _startingPrice,\n                            uint256 _reservedPrice )\n                            public returns (uint id) {\n\n        //else\n        if(block.number >= _deadline) {\n            throwError(\"Invalid deadline entered\");\n            revert();\n        }\n\n        else if (_startingPrice < 0 || _reservedPrice < 0 || _reservedPrice < _startingPrice) {\n            throwError(\"Invalid value entered for price section\");\n            revert();\n        }\n\n        id = auctions.length++;\n        auction storage newAuction = auctions[id];\n        \n        newAuction.seller = msg.sender;\n        newAuction.title = _title;\n        newAuction.auctionId = id;\n        newAuction.description = _description;\n        newAuction.status = auctionStatus.Pending;\n        newAuction.deadline = _deadline;\n        newAuction.startingPrice = _startingPrice;\n        newAuction.reservedPrice = _reservedPrice;\n        newAuction.currentBid = _reservedPrice;\n\n        auctionOwnerMap[newAuction.seller].push(id);\n\n        auctionCreated(id, newAuction.title, newAuction.startingPrice, newAuction.reservedPrice);\n\n        return id;\n    }\n\n    /*function personOwnsAsset(address _person, address _product, uint _recordId) private view returns (bool success) {\n        product productContract = product(_product);\n        return productContract.getOwnerAddress(_recordId) == _person;\n    }\n    \n    function strconcat(string _first, uint _second) internal pure returns (string) {\n        bytes memory temp1 = bytes(_first);\n        bytes memory temp2 = bytes(uintToString(_second));\n        bytes memory ans = new bytes(temp1.length + temp2.length);\n\n        uint k = 0;\n        for (uint i = 0; i < temp1.length; ++i)\n            ans[k++] = temp1[i];\n        for (i = 0; i < temp2.length; ++i)\n            ans[k++] = temp2[i];\n        \n        return string(ans);\n    }\n\n    function addressToString(address _temp) internal pure returns (string) {\n        bytes memory temp = new bytes(20);\n        for (uint i = 0; i < 20; ++i)\n            temp[i] = byte(uint8(uint(_temp) / (2**(8*(19-i)))));\n        \n        return string(temp);\n    }\n\n    function uintToString(uint v) internal pure returns (string) {\n        uint maxlength = 100;\n        uint temp = v;\n        bytes memory reversed = new bytes(maxlength);\n        uint i = 0;\n        while (temp != 0) {\n            uint remainder = temp % 10;\n            temp = temp / 10;\n            reversed[i++] = byte(48 + remainder);\n        }\n        \n        bytes memory s = new bytes(i);\n        for (uint j = 0; j < i; j++) {\n            s[j] = reversed[i - 1 - j];\n        }\n        \n        return string(s);\n    }*/\n}",
  "sourcePath": "/home/helios/Desktop/bidfinex/contracts/bidfinex.sol",
  "compiler": {
    "name": "solc",
    "version": "0.4.19+commit.c4cbbb05.Emscripten.clang"
  },
  "schemaVersion": "2.0.0",
  "updatedAt": "2018-03-31T09:48:41.346Z"
}