{
  "contractName": "bidfinex",
  "abi": [
    {
      "constant": true,
      "inputs": [
        {
          "name": "",
          "type": "address"
        },
        {
          "name": "",
          "type": "uint256"
        }
      ],
      "name": "auctionRefunds",
      "outputs": [
        {
          "name": "",
          "type": "uint256"
        }
      ],
      "payable": false,
      "stateMutability": "view",
      "type": "function"
    },
    {
      "constant": true,
      "inputs": [
        {
          "name": "",
          "type": "address"
        },
        {
          "name": "",
          "type": "uint256"
        }
      ],
      "name": "auctionBidderMap",
      "outputs": [
        {
          "name": "",
          "type": "uint256"
        }
      ],
      "payable": false,
      "stateMutability": "view",
      "type": "function"
    },
    {
      "constant": true,
      "inputs": [
        {
          "name": "",
          "type": "uint256"
        }
      ],
      "name": "auctions",
      "outputs": [
        {
          "name": "seller",
          "type": "address"
        },
        {
          "name": "title",
          "type": "string"
        },
        {
          "name": "recordId",
          "type": "string"
        },
        {
          "name": "description",
          "type": "string"
        },
        {
          "name": "status",
          "type": "uint8"
        },
        {
          "name": "deadline",
          "type": "uint256"
        },
        {
          "name": "productAddress",
          "type": "address"
        },
        {
          "name": "startingPrice",
          "type": "uint256"
        },
        {
          "name": "reservedPrice",
          "type": "uint256"
        },
        {
          "name": "currentBid",
          "type": "uint256"
        }
      ],
      "payable": false,
      "stateMutability": "view",
      "type": "function"
    },
    {
      "constant": true,
      "inputs": [
        {
          "name": "",
          "type": "address"
        },
        {
          "name": "",
          "type": "uint256"
        }
      ],
      "name": "auctionOwnerMap",
      "outputs": [
        {
          "name": "",
          "type": "uint256"
        }
      ],
      "payable": false,
      "stateMutability": "view",
      "type": "function"
    },
    {
      "inputs": [],
      "payable": false,
      "stateMutability": "nonpayable",
      "type": "constructor"
    },
    {
      "anonymous": false,
      "inputs": [
        {
          "indexed": false,
          "name": "message",
          "type": "string"
        }
      ],
      "name": "throwError",
      "type": "event"
    }
  ],
  "bytecode": "0x6060604052341561000f57600080fd5b33600460006101000a81548173ffffffffffffffffffffffffffffffffffffffff021916908373ffffffffffffffffffffffffffffffffffffffff1602179055506105378061005f6000396000f300606060405260043610610062576000357c0100000000000000000000000000000000000000000000000000000000900463ffffffff1680630e23db54146100675780633efe3146146100bd578063571a26a014610113578063c838ef2c14610375575b600080fd5b341561007257600080fd5b6100a7600480803573ffffffffffffffffffffffffffffffffffffffff169060200190919080359060200190919050506103cb565b6040518082815260200191505060405180910390f35b34156100c857600080fd5b6100fd600480803573ffffffffffffffffffffffffffffffffffffffff169060200190919080359060200190919050506103fc565b6040518082815260200191505060405180910390f35b341561011e57600080fd5b610134600480803590602001909190505061042d565b604051808b73ffffffffffffffffffffffffffffffffffffffff1673ffffffffffffffffffffffffffffffffffffffff1681526020018060200180602001806020018a600281111561018257fe5b60ff1681526020018981526020018873ffffffffffffffffffffffffffffffffffffffff1673ffffffffffffffffffffffffffffffffffffffff16815260200187815260200186815260200185815260200184810384528d8181546001816001161561010002031660029004815260200191508054600181600116156101000203166002900480156102555780601f1061022a57610100808354040283529160200191610255565b820191906000526020600020905b81548152906001019060200180831161023857829003601f168201915b505084810383528c8181546001816001161561010002031660029004815260200191508054600181600116156101000203166002900480156102d85780601f106102ad576101008083540402835291602001916102d8565b820191906000526020600020905b8154815290600101906020018083116102bb57829003601f168201915b505084810382528b81815460018160011615610100020316600290048152602001915080546001816001161561010002031660029004801561035b5780601f106103305761010080835404028352916020019161035b565b820191906000526020600020905b81548152906001019060200180831161033e57829003601f168201915b50509d505050505050505050505050505060405180910390f35b341561038057600080fd5b6103b5600480803573ffffffffffffffffffffffffffffffffffffffff169060200190919080359060200190919050506104da565b6040518082815260200191505060405180910390f35b6000602052816000526040600020818154811015156103e657fe5b9060005260206000209001600091509150505481565b60026020528160005260406000208181548110151561041757fe5b9060005260206000209001600091509150505481565b60038181548110151561043c57fe5b90600052602060002090600b02016000915090508060000160009054906101000a900473ffffffffffffffffffffffffffffffffffffffff16908060010190806002019080600301908060040160009054906101000a900460ff16908060050154908060060160009054906101000a900473ffffffffffffffffffffffffffffffffffffffff1690806007015490806008015490806009015490508a565b6001602052816000526040600020818154811015156104f557fe5b90600052602060002090016000915091505054815600a165627a7a7230582062df40a05a5a5401980f4658d5c757430a7d8b671dc1f53ca81b53774d870b850029",
  "source": "pragma solidity ^0.4.19;\n\ncontract bidfinex {\n    \n    struct bid\n    {\n        address bidder;\n        uint256 amount;\n        uint timestamp;\n    }\n\n    enum auctionStatus { Pending, Live, Dead }\n\n    struct auction {\n        address seller;\n        string title;\n        string recordId;\n        string description;\n        auctionStatus status;\n        uint deadline; //Deadline will be block number as contract will not have access to time and date.\n        address productAddress;\n        \n        //Price will be in wei a unit of gas.\n        uint256 startingPrice;\n        uint256 reservedPrice;\n        uint256 currentBid;\n\n        bid[] bids;\n    }\n\n    mapping(address => uint[]) public auctionRefunds;\n    mapping(address => uint[]) public auctionOwnerMap;\n    mapping(address => uint[]) public auctionBidderMap;\n    //mapping(string => bool) public activeAuctionProductMap; //Maintain dictionary of product address + record id to check if they are already on auction\n\n    auction[] public auctions;\n    address owner;\n    \n    modifier onlySeller (uint auctionId) {\n        if (auctions[auctionId].seller != msg.sender)\n        revert();\n        _;\n    }\n    \n    modifier onlyOwner {\n        if (owner != msg.sender)\n        revert();\n        _;\n    }\n\n    modifier onlyActive (uint auctionId) {\n        auction memory temp = auctions[auctionId];\n        \n        if (temp.status != auctionStatus.Live)\n        revert();\n\n        if (block.number >= temp.deadline)\n        revert();\n        \n        _;\n    }\n\n    event throwError(string message);\n    \n    function bidfinex() public {\n        owner = msg.sender;\n    }\n\n    /*function createAuction( string _title,\n                            string _description,\n                            string _productAddress,\n                            string _recordId,\n                            uint _deadline,\n                            uint256 _startingPrice,\n                            uint256 _reservePrice )\n                            public returns (uint auctionId) {\n\n        if(!personOwnsAsset(msg.sender, _productAddress, _recordId)) {\n            throwError(\"Seller does not own the product\");\n            revert();\n        }\n        \n        else if(block.number >= _deadline) {\n            throwError(\"Invalid deadline entered\");\n            revert();\n        }\n\n        else if (_startingPrice < 0 || _reservePrice < 0) {\n            throwError(\"Invalid value entered for price section\");\n            revert();\n        }*/\n}",
  "sourcePath": "/home/helios/Desktop/bidfinex/contracts/bidfinex.sol",
  "compiler": {
    "name": "solc",
    "version": "0.4.19+commit.c4cbbb05.Emscripten.clang"
  },
  "schemaVersion": "2.0.0",
  "updatedAt": "2018-03-28T10:26:29.619Z"
}