{
  "contractName": "bidfinex",
  "abi": [
    {
      "constant": true,
      "inputs": [
        {
          "name": "",
          "type": "address"
        },
        {
          "name": "",
          "type": "uint256"
        }
      ],
      "name": "auctionRefunds",
      "outputs": [
        {
          "name": "",
          "type": "uint256"
        }
      ],
      "payable": false,
      "stateMutability": "view",
      "type": "function"
    },
    {
      "constant": true,
      "inputs": [
        {
          "name": "",
          "type": "address"
        },
        {
          "name": "",
          "type": "uint256"
        }
      ],
      "name": "auctionBidderMap",
      "outputs": [
        {
          "name": "",
          "type": "uint256"
        }
      ],
      "payable": false,
      "stateMutability": "view",
      "type": "function"
    },
    {
      "constant": true,
      "inputs": [
        {
          "name": "",
          "type": "uint256"
        }
      ],
      "name": "auctions",
      "outputs": [
        {
          "name": "seller",
          "type": "address"
        },
        {
          "name": "title",
          "type": "string"
        },
        {
          "name": "recordId",
          "type": "uint256"
        },
        {
          "name": "description",
          "type": "string"
        },
        {
          "name": "status",
          "type": "uint8"
        },
        {
          "name": "deadline",
          "type": "uint256"
        },
        {
          "name": "productAddress",
          "type": "address"
        },
        {
          "name": "startingPrice",
          "type": "uint256"
        },
        {
          "name": "reservedPrice",
          "type": "uint256"
        },
        {
          "name": "currentBid",
          "type": "uint256"
        }
      ],
      "payable": false,
      "stateMutability": "view",
      "type": "function"
    },
    {
      "constant": true,
      "inputs": [
        {
          "name": "",
          "type": "address"
        },
        {
          "name": "",
          "type": "uint256"
        }
      ],
      "name": "auctionOwnerMap",
      "outputs": [
        {
          "name": "",
          "type": "uint256"
        }
      ],
      "payable": false,
      "stateMutability": "view",
      "type": "function"
    },
    {
      "inputs": [],
      "payable": false,
      "stateMutability": "nonpayable",
      "type": "constructor"
    },
    {
      "anonymous": false,
      "inputs": [
        {
          "indexed": false,
          "name": "message",
          "type": "string"
        }
      ],
      "name": "throwError",
      "type": "event"
    },
    {
      "anonymous": false,
      "inputs": [
        {
          "indexed": false,
          "name": "id",
          "type": "uint256"
        },
        {
          "indexed": false,
          "name": "title",
          "type": "string"
        },
        {
          "indexed": false,
          "name": "startingPrice",
          "type": "uint256"
        },
        {
          "indexed": false,
          "name": "reservePrice",
          "type": "uint256"
        }
      ],
      "name": "auctionCreated",
      "type": "event"
    },
    {
      "anonymous": false,
      "inputs": [
        {
          "indexed": false,
          "name": "id",
          "type": "uint256"
        }
      ],
      "name": "auctionStarted",
      "type": "event"
    },
    {
      "anonymous": false,
      "inputs": [
        {
          "indexed": false,
          "name": "id",
          "type": "uint256"
        }
      ],
      "name": "auctionCancelled",
      "type": "event"
    },
    {
      "anonymous": false,
      "inputs": [
        {
          "indexed": false,
          "name": "auctionId",
          "type": "uint256"
        },
        {
          "indexed": false,
          "name": "bidder",
          "type": "address"
        },
        {
          "indexed": false,
          "name": "amount",
          "type": "uint256"
        }
      ],
      "name": "bidPlaced",
      "type": "event"
    },
    {
      "anonymous": false,
      "inputs": [
        {
          "indexed": false,
          "name": "auctionId",
          "type": "uint256"
        },
        {
          "indexed": false,
          "name": "winningBidder",
          "type": "address"
        },
        {
          "indexed": false,
          "name": "amount",
          "type": "uint256"
        }
      ],
      "name": "auctionSold",
      "type": "event"
    },
    {
      "anonymous": false,
      "inputs": [
        {
          "indexed": false,
          "name": "auctionId",
          "type": "uint256"
        },
        {
          "indexed": false,
          "name": "topBid",
          "type": "uint256"
        },
        {
          "indexed": false,
          "name": "reservePrice",
          "type": "uint256"
        }
      ],
      "name": "auctionUnsold",
      "type": "event"
    },
    {
      "constant": false,
      "inputs": [
        {
          "name": "_title",
          "type": "string"
        },
        {
          "name": "_description",
          "type": "string"
        },
        {
          "name": "_productAddress",
          "type": "address"
        },
        {
          "name": "_recordId",
          "type": "uint256"
        },
        {
          "name": "_deadline",
          "type": "uint256"
        },
        {
          "name": "_startingPrice",
          "type": "uint256"
        },
        {
          "name": "_reservedPrice",
          "type": "uint256"
        }
      ],
      "name": "createAuction",
      "outputs": [
        {
          "name": "auctionId",
          "type": "uint256"
        }
      ],
      "payable": false,
      "stateMutability": "nonpayable",
      "type": "function"
    }
  ],
  "bytecode": "0x6060604052341561000f57600080fd5b33600560006101000a81548173ffffffffffffffffffffffffffffffffffffffff021916908373ffffffffffffffffffffffffffffffffffffffff1602179055506113d38061005f6000396000f30060606040526004361061006d576000357c0100000000000000000000000000000000000000000000000000000000900463ffffffff1680630e23db54146100725780633efe3146146100c8578063571a26a01461011e578063c838ef2c146102fe578063eeaaa33c14610354575b600080fd5b341561007d57600080fd5b6100b2600480803573ffffffffffffffffffffffffffffffffffffffff1690602001909190803590602001909190505061044b565b6040518082815260200191505060405180910390f35b34156100d357600080fd5b610108600480803573ffffffffffffffffffffffffffffffffffffffff1690602001909190803590602001909190505061047c565b6040518082815260200191505060405180910390f35b341561012957600080fd5b61013f60048080359060200190919050506104ad565b604051808b73ffffffffffffffffffffffffffffffffffffffff1673ffffffffffffffffffffffffffffffffffffffff168152602001806020018a81526020018060200189600281111561018f57fe5b60ff1681526020018881526020018773ffffffffffffffffffffffffffffffffffffffff1673ffffffffffffffffffffffffffffffffffffffff16815260200186815260200185815260200184815260200183810383528c8181546001816001161561010002031660029004815260200191508054600181600116156101000203166002900480156102625780601f1061023757610100808354040283529160200191610262565b820191906000526020600020905b81548152906001019060200180831161024557829003601f168201915b505083810382528a8181546001816001161561010002031660029004815260200191508054600181600116156101000203166002900480156102e55780601f106102ba576101008083540402835291602001916102e5565b820191906000526020600020905b8154815290600101906020018083116102c857829003601f168201915b50509c5050505050505050505050505060405180910390f35b341561030957600080fd5b61033e600480803573ffffffffffffffffffffffffffffffffffffffff1690602001909190803590602001909190505061055b565b6040518082815260200191505060405180910390f35b341561035f57600080fd5b610435600480803590602001908201803590602001908080601f0160208091040260200160405190810160405280939291908181526020018383808284378201915050505050509190803590602001908201803590602001908080601f0160208091040260200160405190810160405280939291908181526020018383808284378201915050505050509190803573ffffffffffffffffffffffffffffffffffffffff1690602001909190803590602001909190803590602001909190803590602001909190803590602001909190505061058c565b6040518082815260200191505060405180910390f35b60006020528160005260406000208181548110151561046657fe5b9060005260206000209001600091509150505481565b60026020528160005260406000208181548110151561049757fe5b9060005260206000209001600091509150505481565b6004818154811015156104bc57fe5b90600052602060002090600b02016000915090508060000160009054906101000a900473ffffffffffffffffffffffffffffffffffffffff1690806001019080600201549080600301908060040160009054906101000a900460ff16908060050154908060060160009054906101000a900473ffffffffffffffffffffffffffffffffffffffff1690806007015490806008015490806009015490508a565b60016020528160005260406000208181548110151561057657fe5b9060005260206000209001600091509150505481565b60008061059a338888610b81565b151561060d577fe93b6b241154b74690ce495fa4b632a330efb4fbe4ba969ca89eeefce8f4719f60405180806020018281038252601f8152602001807f53656c6c657220646f6573206e6f74206f776e207468652070726f647563740081525060200191505060405180910390a1600080fd5b8443101515610683577fe93b6b241154b74690ce495fa4b632a330efb4fbe4ba969ca89eeefce8f4719f6040518080602001828103825260188152602001807f496e76616c696420646561646c696e6520656e7465726564000000000000000081525060200191505060405180910390a1600080fd5b60008410806106925750600083105b8061069c57508383105b15610734577fe93b6b241154b74690ce495fa4b632a330efb4fbe4ba969ca89eeefce8f4719f6040518080602001828103825260278152602001807f496e76616c69642076616c756520656e746572656420666f722070726963652081526020017f73656374696f6e0000000000000000000000000000000000000000000000000081525060400191505060405180910390a1600080fd5b60011515600361074c6107468a610c51565b89610d37565b6040518082805190602001908083835b602083101515610781578051825260208201915060208101905060208303925061075c565b6001836020036101000a038019825116818451168082178552505050505050905001915050908152602001604051809103902060009054906101000a900460ff1615151415610837577fe93b6b241154b74690ce495fa4b632a330efb4fbe4ba969ca89eeefce8f4719f6040518080602001828103825260178152602001807f4974656d20616c726561647920696e2061756374696f6e00000000000000000081525060200191505060405180910390a1600080fd5b6004805480919060010161084b91906110e1565b915060048281548110151561085c57fe5b90600052602060002090600b02019050338160000160006101000a81548173ffffffffffffffffffffffffffffffffffffffff021916908373ffffffffffffffffffffffffffffffffffffffff160217905550888160010190805190602001906108c7929190611113565b50858160020181905550878160030190805190602001906108e9929190611113565b5060008160040160006101000a81548160ff0219169083600281111561090b57fe5b0217905550848160050181905550868160060160006101000a81548173ffffffffffffffffffffffffffffffffffffffff021916908373ffffffffffffffffffffffffffffffffffffffff160217905550838160070181905550828160080181905550828160090181905550600160008260000160009054906101000a900473ffffffffffffffffffffffffffffffffffffffff1673ffffffffffffffffffffffffffffffffffffffff1673ffffffffffffffffffffffffffffffffffffffff16815260200190815260200160002080548060010182816109ec9190611193565b91600052602060002090016000849091909150555060016003610a17610a118a610c51565b89610d37565b6040518082805190602001908083835b602083101515610a4c5780518252602082019150602081019050602083039250610a27565b6001836020036101000a038019825116818451168082178552505050505050905001915050908152602001604051809103902060006101000a81548160ff0219169083151502179055507f3913e02939edbf80317fb8918381046a1077ae115a5a3a3e1d8551874d53b3c18282600101836007015484600801546040518085815260200180602001848152602001838152602001828103825285818154600181600116156101000203166002900481526020019150805460018160011615610100020316600290048015610b615780601f10610b3657610100808354040283529160200191610b61565b820191906000526020600020905b815481529060010190602001808311610b4457829003601f168201915b50509550505050505060405180910390a181915050979650505050505050565b6000808390508473ffffffffffffffffffffffffffffffffffffffff168173ffffffffffffffffffffffffffffffffffffffff1663dd550958856000604051602001526040518263ffffffff167c010000000000000000000000000000000000000000000000000000000002815260040180828152602001915050602060405180830381600087803b1515610c1557600080fd5b6102c65a03f11515610c2657600080fd5b5050506040518051905073ffffffffffffffffffffffffffffffffffffffff16149150509392505050565b610c596111bf565b610c616111d3565b60006014604051805910610c725750595b9080825280601f01601f19166020018201604052509150600090505b6014811015610d2d578060130360080260020a8473ffffffffffffffffffffffffffffffffffffffff16811515610cc157fe5b047f0100000000000000000000000000000000000000000000000000000000000000028282815181101515610cf257fe5b9060200101907effffffffffffffffffffffffffffffffffffffffffffffffffffffffffffff1916908160001a905350806001019050610c8e565b8192505050919050565b610d3f6111bf565b610d476111d3565b610d4f6111d3565b610d576111d3565b600080879450610d6687610f0f565b93508351855101604051805910610d7a5750595b9080825280601f01601f1916602001820160405250925060009150600090505b8451811015610e4b578481815181101515610db157fe5b9060200101517f010000000000000000000000000000000000000000000000000000000000000090047f0100000000000000000000000000000000000000000000000000000000000000028383806001019450815181101515610e1057fe5b9060200101907effffffffffffffffffffffffffffffffffffffffffffffffffffffffffffff1916908160001a905350806001019050610d9a565b600090505b8351811015610f01578381815181101515610e6757fe5b9060200101517f010000000000000000000000000000000000000000000000000000000000000090047f0100000000000000000000000000000000000000000000000000000000000000028383806001019450815181101515610ec657fe5b9060200101907effffffffffffffffffffffffffffffffffffffffffffffffffffffffffffff1916908160001a905350806001019050610e50565b829550505050505092915050565b610f176111bf565b600080610f226111d3565b600080610f2d6111d3565b60006064965088955086604051805910610f445750595b9080825280601f01601f19166020018201604052509450600093505b600086141515610ff757600a86811515610f7657fe5b069250600a86811515610f8557fe5b049550826030017f0100000000000000000000000000000000000000000000000000000000000000028585806001019650815181101515610fc257fe5b9060200101907effffffffffffffffffffffffffffffffffffffffffffffffffffffffffffff1916908160001a905350610f60565b836040518059106110055750595b9080825280601f01601f19166020018201604052509150600090505b838110156110d2578481600186030381518110151561103c57fe5b9060200101517f010000000000000000000000000000000000000000000000000000000000000090047f010000000000000000000000000000000000000000000000000000000000000002828281518110151561109557fe5b9060200101907effffffffffffffffffffffffffffffffffffffffffffffffffffffffffffff1916908160001a9053508080600101915050611021565b81975050505050505050919050565b81548183558181151161110e57600b0281600b02836000526020600020918201910161110d91906111e7565b5b505050565b828054600181600116156101000203166002900490600052602060002090601f016020900481019282601f1061115457805160ff1916838001178555611182565b82800160010185558215611182579182015b82811115611181578251825591602001919060010190611166565b5b50905061118f91906112c0565b5090565b8154818355818115116111ba578183600052602060002091820191016111b991906112c0565b5b505050565b602060405190810160405280600081525090565b602060405190810160405280600081525090565b6112bd91905b808211156112b957600080820160006101000a81549073ffffffffffffffffffffffffffffffffffffffff021916905560018201600061122d91906112e5565b600282016000905560038201600061124591906112e5565b6004820160006101000a81549060ff021916905560058201600090556006820160006101000a81549073ffffffffffffffffffffffffffffffffffffffff0219169055600782016000905560088201600090556009820160009055600a820160006112b0919061132d565b50600b016111ed565b5090565b90565b6112e291905b808211156112de5760008160009055506001016112c6565b5090565b90565b50805460018160011615610100020316600290046000825580601f1061130b575061132a565b601f01602090049060005260206000209081019061132991906112c0565b5b50565b508054600082556003029060005260206000209081019061134e9190611351565b50565b6113a491905b808211156113a057600080820160006101000a81549073ffffffffffffffffffffffffffffffffffffffff02191690556001820160009055600282016000905550600301611357565b5090565b905600a165627a7a7230582074a6f1302d3dcbb4abe43717c6f59144388d683cad8bf9e47ed3be22cd6a72780029",
  "source": "pragma solidity ^0.4.19;\n\nimport \"./inventory.sol\";\n\ncontract bidfinex {\n    \n    struct bid\n    {\n        address bidder;\n        uint256 amount;\n        uint timestamp;\n    }\n\n    enum auctionStatus { Pending, Live, Dead }\n\n    struct auction {\n        address seller;\n        string title;\n        uint recordId;\n        string description;\n        auctionStatus status;\n        uint deadline; //Deadline will be block number as contract will not have access to time and date.\n        address productAddress;\n        \n        //Price will be in wei a unit of gas.\n        uint256 startingPrice;\n        uint256 reservedPrice;\n        uint256 currentBid;\n\n        bid[] bids;\n    }\n\n    mapping(address => uint[]) public auctionRefunds;\n    mapping(address => uint[]) public auctionOwnerMap;\n    mapping(address => uint[]) public auctionBidderMap;\n    mapping(string => bool) private activeAuctionProductMap; //Maintain dictionary of product address + record id to check if they are already on auction\n\n    auction[] public auctions;\n    address owner;\n    \n    modifier onlySeller (uint auctionId) {\n        if (auctions[auctionId].seller != msg.sender)\n        revert();\n        _;\n    }\n    \n    modifier onlyOwner {\n        if (owner != msg.sender)\n        revert();\n        _;\n    }\n\n    modifier onlyActive (uint auctionId) {\n        auction memory temp = auctions[auctionId];\n        \n        if (temp.status != auctionStatus.Live)\n        revert();\n\n        if (block.number >= temp.deadline)\n        revert();\n        \n        _;\n    }\n\n    event throwError(string message);\n    event auctionCreated(uint id, string title, uint256 startingPrice, uint256 reservePrice);\n    event auctionStarted(uint id);\n    event auctionCancelled(uint id);\n    event bidPlaced(uint auctionId, address bidder, uint256 amount);\n    event auctionSold(uint auctionId, address winningBidder, uint256 amount);\n    event auctionUnsold(uint auctionId, uint256 topBid, uint256 reservePrice);\n\n    function bidfinex() public {\n        owner = msg.sender;\n    }\n\n    function createAuction( string _title,\n                            string _description,\n                            address _productAddress,\n                            uint _recordId,\n                            uint _deadline,\n                            uint256 _startingPrice,\n                            uint256 _reservedPrice )\n                            public returns (uint auctionId) {\n\n        if(!personOwnsAsset(msg.sender, _productAddress, _recordId)) {\n            throwError(\"Seller does not own the product\");\n            revert();\n        }\n        \n        //else\n        if(block.number >= _deadline) {\n            throwError(\"Invalid deadline entered\");\n            revert();\n        }\n\n        else if (_startingPrice < 0 || _reservedPrice < 0 || _reservedPrice < _startingPrice) {\n            throwError(\"Invalid value entered for price section\");\n            revert();\n        }\n\n        else if(activeAuctionProductMap[strconcat(addressToString(_productAddress), _recordId)] == true) {\n            throwError(\"Item already in auction\");\n            revert();\n        }\n\n        auctionId = auctions.length++;\n        auction storage newAuction = auctions[auctionId];\n        \n        newAuction.seller = msg.sender;\n        newAuction.title = _title;\n        newAuction.recordId = _recordId;\n        newAuction.description = _description;\n        newAuction.status = auctionStatus.Pending;\n        newAuction.deadline = _deadline;\n        newAuction.productAddress = _productAddress;\n        newAuction.startingPrice = _startingPrice;\n        newAuction.reservedPrice = _reservedPrice;\n        newAuction.currentBid = _reservedPrice;\n\n        auctionOwnerMap[newAuction.seller].push(auctionId);\n        activeAuctionProductMap[strconcat(addressToString(_productAddress), _recordId)] = true;\n\n        auctionCreated(auctionId, newAuction.title, newAuction.startingPrice, newAuction.reservedPrice);\n\n        return auctionId;\n    }\n\n    function personOwnsAsset(address _person, address _product, uint _recordId) private view returns (bool success) {\n        product productContract = product(_product);\n        return productContract.getOwnerAddress(_recordId) == _person;\n    }\n    \n    function strconcat(string _first, uint _second) internal pure returns (string) {\n        bytes memory temp1 = bytes(_first);\n        bytes memory temp2 = bytes(uintToString(_second));\n        bytes memory ans = new bytes(temp1.length + temp2.length);\n\n        uint k = 0;\n        for (uint i = 0; i < temp1.length; ++i)\n            ans[k++] = temp1[i];\n        for (i = 0; i < temp2.length; ++i)\n            ans[k++] = temp2[i];\n        \n        return string(ans);\n    }\n\n    function addressToString(address _temp) internal pure returns (string) {\n        bytes memory temp = new bytes(20);\n        for (uint i = 0; i < 20; ++i)\n            temp[i] = byte(uint8(uint(_temp) / (2**(8*(19-i)))));\n        \n        return string(temp);\n    }\n\n    function uintToString(uint v) internal pure returns (string) {\n        uint maxlength = 100;\n        uint temp = v;\n        bytes memory reversed = new bytes(maxlength);\n        uint i = 0;\n        while (temp != 0) {\n            uint remainder = temp % 10;\n            temp = temp / 10;\n            reversed[i++] = byte(48 + remainder);\n        }\n        \n        bytes memory s = new bytes(i);\n        for (uint j = 0; j < i; j++) {\n            s[j] = reversed[i - 1 - j];\n        }\n        \n        return string(s);\n    }\n}",
  "sourcePath": "/home/helios/Desktop/bidfinex/contracts/bidfinex.sol",
  "compiler": {
    "name": "solc",
    "version": "0.4.19+commit.c4cbbb05.Emscripten.clang"
  },
  "schemaVersion": "2.0.0",
  "updatedAt": "2018-03-28T14:21:40.533Z"
}