{
  "contractName": "bidfinex",
  "abi": [
    {
      "constant": true,
      "inputs": [
        {
          "name": "",
          "type": "address"
        },
        {
          "name": "",
          "type": "uint256"
        }
      ],
      "name": "auctionRefunds",
      "outputs": [
        {
          "name": "",
          "type": "uint256"
        }
      ],
      "payable": false,
      "stateMutability": "view",
      "type": "function"
    },
    {
      "constant": true,
      "inputs": [
        {
          "name": "",
          "type": "address"
        },
        {
          "name": "",
          "type": "uint256"
        }
      ],
      "name": "auctionBidderMap",
      "outputs": [
        {
          "name": "",
          "type": "uint256"
        }
      ],
      "payable": false,
      "stateMutability": "view",
      "type": "function"
    },
    {
      "constant": true,
      "inputs": [
        {
          "name": "",
          "type": "uint256"
        }
      ],
      "name": "auctions",
      "outputs": [
        {
          "name": "seller",
          "type": "address"
        },
        {
          "name": "title",
          "type": "string"
        },
        {
          "name": "auctionId",
          "type": "uint256"
        },
        {
          "name": "description",
          "type": "string"
        },
        {
          "name": "status",
          "type": "uint8"
        },
        {
          "name": "deadline",
          "type": "uint256"
        },
        {
          "name": "startingPrice",
          "type": "uint256"
        },
        {
          "name": "reservedPrice",
          "type": "uint256"
        },
        {
          "name": "currentBid",
          "type": "uint256"
        }
      ],
      "payable": false,
      "stateMutability": "view",
      "type": "function"
    },
    {
      "constant": true,
      "inputs": [
        {
          "name": "",
          "type": "address"
        },
        {
          "name": "",
          "type": "uint256"
        }
      ],
      "name": "auctionOwnerMap",
      "outputs": [
        {
          "name": "",
          "type": "uint256"
        }
      ],
      "payable": false,
      "stateMutability": "view",
      "type": "function"
    },
    {
      "inputs": [],
      "payable": false,
      "stateMutability": "nonpayable",
      "type": "constructor"
    },
    {
      "anonymous": false,
      "inputs": [
        {
          "indexed": false,
          "name": "message",
          "type": "string"
        }
      ],
      "name": "throwError",
      "type": "event"
    },
    {
      "anonymous": false,
      "inputs": [
        {
          "indexed": false,
          "name": "id",
          "type": "uint256"
        },
        {
          "indexed": false,
          "name": "title",
          "type": "string"
        },
        {
          "indexed": false,
          "name": "startingPrice",
          "type": "uint256"
        },
        {
          "indexed": false,
          "name": "reservePrice",
          "type": "uint256"
        }
      ],
      "name": "auctionCreated",
      "type": "event"
    },
    {
      "anonymous": false,
      "inputs": [
        {
          "indexed": false,
          "name": "id",
          "type": "uint256"
        }
      ],
      "name": "auctionStarted",
      "type": "event"
    },
    {
      "anonymous": false,
      "inputs": [
        {
          "indexed": false,
          "name": "id",
          "type": "uint256"
        }
      ],
      "name": "auctionCancelled",
      "type": "event"
    },
    {
      "anonymous": false,
      "inputs": [
        {
          "indexed": false,
          "name": "auctionId",
          "type": "uint256"
        },
        {
          "indexed": false,
          "name": "bidder",
          "type": "address"
        },
        {
          "indexed": false,
          "name": "amount",
          "type": "uint256"
        }
      ],
      "name": "bidPlaced",
      "type": "event"
    },
    {
      "anonymous": false,
      "inputs": [
        {
          "indexed": false,
          "name": "auctionId",
          "type": "uint256"
        },
        {
          "indexed": false,
          "name": "winningBidder",
          "type": "address"
        },
        {
          "indexed": false,
          "name": "amount",
          "type": "uint256"
        }
      ],
      "name": "auctionSold",
      "type": "event"
    },
    {
      "anonymous": false,
      "inputs": [
        {
          "indexed": false,
          "name": "auctionId",
          "type": "uint256"
        },
        {
          "indexed": false,
          "name": "topBid",
          "type": "uint256"
        },
        {
          "indexed": false,
          "name": "reservePrice",
          "type": "uint256"
        }
      ],
      "name": "auctionUnsold",
      "type": "event"
    },
    {
      "constant": false,
      "inputs": [
        {
          "name": "_title",
          "type": "string"
        },
        {
          "name": "_description",
          "type": "string"
        },
        {
          "name": "_deadline",
          "type": "uint256"
        },
        {
          "name": "_startingPrice",
          "type": "uint256"
        },
        {
          "name": "_reservedPrice",
          "type": "uint256"
        }
      ],
      "name": "createAuction",
      "outputs": [
        {
          "name": "id",
          "type": "uint256"
        }
      ],
      "payable": false,
      "stateMutability": "nonpayable",
      "type": "function"
    },
    {
      "constant": true,
      "inputs": [
        {
          "name": "idx",
          "type": "uint256"
        }
      ],
      "name": "getAuction",
      "outputs": [
        {
          "name": "",
          "type": "address"
        },
        {
          "name": "",
          "type": "uint256"
        },
        {
          "name": "",
          "type": "string"
        },
        {
          "name": "",
          "type": "string"
        },
        {
          "name": "",
          "type": "uint256"
        },
        {
          "name": "",
          "type": "uint256"
        },
        {
          "name": "",
          "type": "uint256"
        },
        {
          "name": "",
          "type": "uint256"
        },
        {
          "name": "",
          "type": "uint256"
        }
      ],
      "payable": false,
      "stateMutability": "view",
      "type": "function"
    },
    {
      "constant": true,
      "inputs": [],
      "name": "getAuctionCount",
      "outputs": [
        {
          "name": "",
          "type": "uint256"
        }
      ],
      "payable": false,
      "stateMutability": "view",
      "type": "function"
    },
    {
      "constant": true,
      "inputs": [
        {
          "name": "idx",
          "type": "uint256"
        }
      ],
      "name": "getAuctionStatus",
      "outputs": [
        {
          "name": "",
          "type": "uint256"
        }
      ],
      "payable": false,
      "stateMutability": "view",
      "type": "function"
    },
    {
      "constant": true,
      "inputs": [
        {
          "name": "user",
          "type": "address"
        }
      ],
      "name": "getAuctionCountForUser",
      "outputs": [
        {
          "name": "",
          "type": "uint256"
        }
      ],
      "payable": false,
      "stateMutability": "view",
      "type": "function"
    },
    {
      "constant": true,
      "inputs": [
        {
          "name": "user",
          "type": "address"
        },
        {
          "name": "idx",
          "type": "uint256"
        }
      ],
      "name": "getAuctionIdForUserIdx",
      "outputs": [
        {
          "name": "",
          "type": "uint256"
        }
      ],
      "payable": false,
      "stateMutability": "view",
      "type": "function"
    }
  ],
  "bytecode": "0x6060604052341561000f57600080fd5b33600460006101000a81548173ffffffffffffffffffffffffffffffffffffffff021916908373ffffffffffffffffffffffffffffffffffffffff1602179055506116068061005f6000396000f3006060604052600436106100a4576000357c0100000000000000000000000000000000000000000000000000000000900463ffffffff1680630e23db54146100a95780630ed0b8ca146100ff5780633efe31461461014c578063571a26a0146101a25780635800eafa1461034f5780635ae374be1461041e5780637765c52c1461047457806378bd7935146104ab578063c44e664014610610578063c838ef2c14610639575b600080fd5b34156100b457600080fd5b6100e9600480803573ffffffffffffffffffffffffffffffffffffffff1690602001909190803590602001909190505061068f565b6040518082815260200191505060405180910390f35b341561010a57600080fd5b610136600480803573ffffffffffffffffffffffffffffffffffffffff169060200190919050506106c0565b6040518082815260200191505060405180910390f35b341561015757600080fd5b61018c600480803573ffffffffffffffffffffffffffffffffffffffff1690602001909190803590602001909190505061070c565b6040518082815260200191505060405180910390f35b34156101ad57600080fd5b6101c3600480803590602001909190505061073d565b604051808a73ffffffffffffffffffffffffffffffffffffffff1673ffffffffffffffffffffffffffffffffffffffff168152602001806020018981526020018060200188600281111561021357fe5b60ff16815260200187815260200186815260200185815260200184815260200183810383528b8181546001816001161561010002031660029004815260200191508054600181600116156101000203166002900480156102b45780601f10610289576101008083540402835291602001916102b4565b820191906000526020600020905b81548152906001019060200180831161029757829003601f168201915b50508381038252898181546001816001161561010002031660029004815260200191508054600181600116156101000203166002900480156103375780601f1061030c57610100808354040283529160200191610337565b820191906000526020600020905b81548152906001019060200180831161031a57829003601f168201915b50509b50505050505050505050505060405180910390f35b341561035a57600080fd5b610408600480803590602001908201803590602001908080601f0160208091040260200160405190810160405280939291908181526020018383808284378201915050505050509190803590602001908201803590602001908080601f016020809104026020016040519081016040528093929190818152602001838380828437820191505050505050919080359060200190919080359060200190919080359060200190919050506107c5565b6040518082815260200191505060405180910390f35b341561042957600080fd5b61045e600480803573ffffffffffffffffffffffffffffffffffffffff16906020019091908035906020019091905050610b5f565b6040518082815260200191505060405180910390f35b341561047f57600080fd5b6104956004808035906020019091905050610bc1565b6040518082815260200191505060405180910390f35b34156104b657600080fd5b6104cc6004808035906020019091905050610ed2565b604051808a73ffffffffffffffffffffffffffffffffffffffff1673ffffffffffffffffffffffffffffffffffffffff168152602001898152602001806020018060200188815260200187815260200186815260200185815260200184815260200183810383528a818151815260200191508051906020019080838360005b8381101561056657808201518184015260208101905061054b565b50505050905090810190601f1680156105935780820380516001836020036101000a031916815260200191505b50838103825289818151815260200191508051906020019080838360005b838110156105cc5780820151818401526020810190506105b1565b50505050905090810190601f1680156105f95780820380516001836020036101000a031916815260200191505b509b50505050505050505050505060405180910390f35b341561061b57600080fd5b610623611262565b6040518082815260200191505060405180910390f35b341561064457600080fd5b610679600480803573ffffffffffffffffffffffffffffffffffffffff1690602001909190803590602001909190505061126f565b6040518082815260200191505060405180910390f35b6000602052816000526040600020818154811015156106aa57fe5b9060005260206000209001600091509150505481565b6000600160008373ffffffffffffffffffffffffffffffffffffffff1673ffffffffffffffffffffffffffffffffffffffff168152602001908152602001600020805490509050919050565b60026020528160005260406000208181548110151561072757fe5b9060005260206000209001600091509150505481565b60038181548110151561074c57fe5b90600052602060002090600a02016000915090508060000160009054906101000a900473ffffffffffffffffffffffffffffffffffffffff1690806001019080600201549080600301908060040160009054906101000a900460ff16908060050154908060060154908060070154908060080154905089565b600080844310151561083e577fe93b6b241154b74690ce495fa4b632a330efb4fbe4ba969ca89eeefce8f4719f6040518080602001828103825260188152602001807f496e76616c696420646561646c696e6520656e7465726564000000000000000081525060200191505060405180910390a1600080fd5b600084108061084d5750600083105b8061085757508383105b156108ef577fe93b6b241154b74690ce495fa4b632a330efb4fbe4ba969ca89eeefce8f4719f6040518080602001828103825260278152602001807f496e76616c69642076616c756520656e746572656420666f722070726963652081526020017f73656374696f6e0000000000000000000000000000000000000000000000000081525060400191505060405180910390a1600080fd5b6003805480919060010161090391906112a0565b915060038281548110151561091457fe5b90600052602060002090600a02019050338160000160006101000a81548173ffffffffffffffffffffffffffffffffffffffff021916908373ffffffffffffffffffffffffffffffffffffffff1602179055508681600101908051906020019061097f9291906112d2565b50818160020181905550858160030190805190602001906109a19291906112d2565b5060008160040160006101000a81548160ff021916908360028111156109c357fe5b0217905550848160050181905550838160060181905550828160070181905550828160080181905550600160008260000160009054906101000a900473ffffffffffffffffffffffffffffffffffffffff1673ffffffffffffffffffffffffffffffffffffffff1673ffffffffffffffffffffffffffffffffffffffff1681526020019081526020016000208054806001018281610a619190611352565b9160005260206000209001600084909190915055507f3913e02939edbf80317fb8918381046a1077ae115a5a3a3e1d8551874d53b3c18282600101836006015484600701546040518085815260200180602001848152602001838152602001828103825285818154600181600116156101000203166002900481526020019150805460018160011615610100020316600290048015610b415780601f10610b1657610100808354040283529160200191610b41565b820191906000526020600020905b815481529060010190602001808311610b2457829003601f168201915b50509550505050505060405180910390a18191505095945050505050565b6000600160008473ffffffffffffffffffffffffffffffffffffffff1673ffffffffffffffffffffffffffffffffffffffff16815260200190815260200160002082815481101515610bad57fe5b906000526020600020900154905092915050565b6000610bcb61137e565b600383815481101515610bda57fe5b90600052602060002090600a020161014060405190810160405290816000820160009054906101000a900473ffffffffffffffffffffffffffffffffffffffff1673ffffffffffffffffffffffffffffffffffffffff1673ffffffffffffffffffffffffffffffffffffffff168152602001600182018054600181600116156101000203166002900480601f016020809104026020016040519081016040528092919081815260200182805460018160011615610100020316600290048015610ce45780601f10610cb957610100808354040283529160200191610ce4565b820191906000526020600020905b815481529060010190602001808311610cc757829003601f168201915b5050505050815260200160028201548152602001600382018054600181600116156101000203166002900480601f016020809104026020016040519081016040528092919081815260200182805460018160011615610100020316600290048015610d905780601f10610d6557610100808354040283529160200191610d90565b820191906000526020600020905b815481529060010190602001808311610d7357829003601f168201915b505050505081526020016004820160009054906101000a900460ff166002811115610db757fe5b6002811115610dc257fe5b81526020016005820154815260200160068201548152602001600782015481526020016008820154815260200160098201805480602002602001604051908101604052809291908181526020016000905b82821015610eb05783829060005260206000209060030201606060405190810160405290816000820160009054906101000a900473ffffffffffffffffffffffffffffffffffffffff1673ffffffffffffffffffffffffffffffffffffffff1673ffffffffffffffffffffffffffffffffffffffff1681526020016001820154815260200160028201548152505081526020019060010190610e13565b5050505081525050905080608001516002811115610eca57fe5b915050919050565b600080610edd611405565b610ee5611405565b6000806000806000610ef561137e565b60038b815481101515610f0457fe5b90600052602060002090600a020161014060405190810160405290816000820160009054906101000a900473ffffffffffffffffffffffffffffffffffffffff1673ffffffffffffffffffffffffffffffffffffffff1673ffffffffffffffffffffffffffffffffffffffff168152602001600182018054600181600116156101000203166002900480601f01602080910402602001604051908101604052809291908181526020018280546001816001161561010002031660029004801561100e5780601f10610fe35761010080835404028352916020019161100e565b820191906000526020600020905b815481529060010190602001808311610ff157829003601f168201915b5050505050815260200160028201548152602001600382018054600181600116156101000203166002900480601f0160208091040260200160405190810160405280929190818152602001828054600181600116156101000203166002900480156110ba5780601f1061108f576101008083540402835291602001916110ba565b820191906000526020600020905b81548152906001019060200180831161109d57829003601f168201915b505050505081526020016004820160009054906101000a900460ff1660028111156110e157fe5b60028111156110ec57fe5b81526020016005820154815260200160068201548152602001600782015481526020016008820154815260200160098201805480602002602001604051908101604052809291908181526020016000905b828210156111da5783829060005260206000209060030201606060405190810160405290816000820160009054906101000a900473ffffffffffffffffffffffffffffffffffffffff1673ffffffffffffffffffffffffffffffffffffffff1673ffffffffffffffffffffffffffffffffffffffff168152602001600182015481526020016002820154815250508152602001906001019061113d565b505050508152505090506000816000015173ffffffffffffffffffffffffffffffffffffffff16141561120c57600080fd5b80600001518160400151826020015183606001518460a001518560c001518660e0015187610100015188610120015151869650859550995099509950995099509950995099509950509193959799909294969850565b6000600380549050905090565b60016020528160005260406000208181548110151561128a57fe5b9060005260206000209001600091509150505481565b8154818355818115116112cd57600a0281600a0283600052602060002091820191016112cc9190611419565b5b505050565b828054600181600116156101000203166002900490600052602060002090601f016020900481019282601f1061131357805160ff1916838001178555611341565b82800160010185558215611341579182015b82811115611340578251825591602001919060010190611325565b5b50905061134e91906114cb565b5090565b8154818355818115116113795781836000526020600020918201910161137891906114cb565b5b505050565b61014060405190810160405280600073ffffffffffffffffffffffffffffffffffffffff1681526020016113b06114f0565b8152602001600081526020016113c46114f0565b8152602001600060028111156113d657fe5b8152602001600081526020016000815260200160008152602001600081526020016113ff611504565b81525090565b602060405190810160405280600081525090565b6114c891905b808211156114c457600080820160006101000a81549073ffffffffffffffffffffffffffffffffffffffff021916905560018201600061145f9190611518565b60028201600090556003820160006114779190611518565b6004820160006101000a81549060ff021916905560058201600090556006820160009055600782016000905560088201600090556009820160006114bb9190611560565b50600a0161141f565b5090565b90565b6114ed91905b808211156114e95760008160009055506001016114d1565b5090565b90565b602060405190810160405280600081525090565b602060405190810160405280600081525090565b50805460018160011615610100020316600290046000825580601f1061153e575061155d565b601f01602090049060005260206000209081019061155c91906114cb565b5b50565b50805460008255600302906000526020600020908101906115819190611584565b50565b6115d791905b808211156115d357600080820160006101000a81549073ffffffffffffffffffffffffffffffffffffffff0219169055600182016000905560028201600090555060030161158a565b5090565b905600a165627a7a72305820bcf971eb3e1f3d922d6a91922992429f2237d5233830c8add65ce0e8bb335e240029",
  "source": "pragma solidity ^0.4.19;\n\ncontract bidfinex {\n    \n    struct bid\n    {\n        address bidder;\n        uint256 amount;\n        uint timestamp;\n    }\n\n    enum auctionStatus { Pending, Live, Dead }\n\n    struct auction {\n        address seller;\n        string title;\n        uint auctionId;\n        string description;\n        auctionStatus status;\n        uint deadline; //Deadline will be block number as contract will not have access to time and date.\n        \n        //Price will be in wei a unit of gas.\n        uint256 startingPrice;\n        uint256 reservedPrice;\n        uint256 currentBid;\n\n        bid[] bids;\n    }\n\n    mapping(address => uint[]) public auctionRefunds;\n    mapping(address => uint[]) public auctionOwnerMap;\n    mapping(address => uint[]) public auctionBidderMap;\n    \n    auction[] public auctions;\n    address owner;\n    \n    modifier onlySeller (uint auctionId) {\n        if (auctions[auctionId].seller != msg.sender)\n        revert();\n        _;\n    }\n    \n    modifier onlyOwner {\n        if (owner != msg.sender)\n        revert();\n        _;\n    }\n\n    modifier onlyActive (uint auctionId) {\n        auction memory temp = auctions[auctionId];\n        \n        if (temp.status != auctionStatus.Live)\n        revert();\n\n        else if (block.number >= temp.deadline)\n        revert();\n        \n        _;\n    }\n\n    event throwError(string message);\n    event auctionCreated(uint id, string title, uint256 startingPrice, uint256 reservePrice);\n    event auctionStarted(uint id);\n    event auctionCancelled(uint id);\n    event bidPlaced(uint auctionId, address bidder, uint256 amount);\n    event auctionSold(uint auctionId, address winningBidder, uint256 amount);\n    event auctionUnsold(uint auctionId, uint256 topBid, uint256 reservePrice);\n\n    function bidfinex() public {\n        owner = msg.sender;\n    }\n\n    function createAuction( string _title,\n                            string _description,\n                            uint _deadline,\n                            uint256 _startingPrice,\n                            uint256 _reservedPrice )\n                            public returns (uint id) {\n\n        //else\n        if(block.number >= _deadline) {\n            throwError(\"Invalid deadline entered\");\n            revert();\n        }\n\n        else if (_startingPrice < 0 || _reservedPrice < 0 || _reservedPrice < _startingPrice) {\n            throwError(\"Invalid value entered for price section\");\n            revert();\n        }\n\n        id = auctions.length++;\n        auction storage newAuction = auctions[id];\n        \n        newAuction.seller = msg.sender;\n        newAuction.title = _title;\n        newAuction.auctionId = id;\n        newAuction.description = _description;\n        newAuction.status = auctionStatus.Pending;\n        newAuction.deadline = _deadline;\n        newAuction.startingPrice = _startingPrice;\n        newAuction.reservedPrice = _reservedPrice;\n        newAuction.currentBid = _reservedPrice;\n\n        auctionOwnerMap[newAuction.seller].push(id);\n\n        auctionCreated(id, newAuction.title, newAuction.startingPrice, newAuction.reservedPrice);\n\n        return id;\n    }\n    \n    function getAuction(uint idx) public view returns (address, uint, string, string, uint, uint256, uint256, uint256, uint) {\n        auction memory temp = auctions[idx];\n        if (temp.seller == 0) \n            revert();\n\n        return (temp.seller,\n                temp.auctionId,\n                temp.title,\n                temp.description,\n                temp.deadline,\n                temp.startingPrice,\n                temp.reservedPrice,\n                temp.currentBid,\n                temp.bids.length);\n    }\n\n    function getAuctionCount() public view returns (uint) {\n        return auctions.length;\n    }\n\n    function getAuctionStatus(uint idx) public view returns (uint) {\n        auction memory temp = auctions[idx];\n        return uint(temp.status);\n    }\n\n    function getAuctionCountForUser(address user) public view returns (uint) {\n        return auctionOwnerMap[user].length;\n    }\n\n    function getAuctionIdForUserIdx(address user, uint idx) public view returns (uint) {\n        return auctionOwnerMap[user][idx];\n    }\n\n    \n    /*function personOwnsAsset(address _person, address _product, uint _recordId) private view returns (bool success) {\n        product productContract = product(_product);\n        return productContract.getOwnerAddress(_recordId) == _person;\n    }\n    \n    function strconcat(string _first, uint _second) internal pure returns (string) {\n        bytes memory temp1 = bytes(_first);\n        bytes memory temp2 = bytes(uintToString(_second));\n        bytes memory ans = new bytes(temp1.length + temp2.length);\n\n        uint k = 0;\n        for (uint i = 0; i < temp1.length; ++i)\n            ans[k++] = temp1[i];\n        for (i = 0; i < temp2.length; ++i)\n            ans[k++] = temp2[i];\n        \n        return string(ans);\n    }\n\n    function addressToString(address _temp) internal pure returns (string) {\n        bytes memory temp = new bytes(20);\n        for (uint i = 0; i < 20; ++i)\n            temp[i] = byte(uint8(uint(_temp) / (2**(8*(19-i)))));\n        \n        return string(temp);\n    }\n\n    function uintToString(uint v) internal pure returns (string) {\n        uint maxlength = 100;\n        uint temp = v;\n        bytes memory reversed = new bytes(maxlength);\n        uint i = 0;\n        while (temp != 0) {\n            uint remainder = temp % 10;\n            temp = temp / 10;\n            reversed[i++] = byte(48 + remainder);\n        }\n        \n        bytes memory s = new bytes(i);\n        for (uint j = 0; j < i; j++) {\n            s[j] = reversed[i - 1 - j];\n        }\n        \n        return string(s);\n    }*/\n}",
  "sourcePath": "/home/helios/Desktop/bidfinex/contracts/bidfinex.sol",
  "compiler": {
    "name": "solc",
    "version": "0.4.19+commit.c4cbbb05.Emscripten.clang"
  },
  "schemaVersion": "2.0.0",
  "updatedAt": "2018-03-31T10:04:04.087Z"
}