{
  "contractName": "bidfinex",
  "abi": [
    {
      "constant": true,
      "inputs": [
        {
          "name": "",
          "type": "address"
        },
        {
          "name": "",
          "type": "uint256"
        }
      ],
      "name": "auctionBidderMap",
      "outputs": [
        {
          "name": "",
          "type": "uint256"
        }
      ],
      "payable": false,
      "stateMutability": "view",
      "type": "function"
    },
    {
      "constant": true,
      "inputs": [
        {
          "name": "",
          "type": "uint256"
        }
      ],
      "name": "auctions",
      "outputs": [
        {
          "name": "seller",
          "type": "address"
        },
        {
          "name": "title",
          "type": "string"
        },
        {
          "name": "auctionId",
          "type": "uint256"
        },
        {
          "name": "description",
          "type": "string"
        },
        {
          "name": "status",
          "type": "uint8"
        },
        {
          "name": "deadline",
          "type": "uint256"
        },
        {
          "name": "startingPrice",
          "type": "uint256"
        },
        {
          "name": "reservedPrice",
          "type": "uint256"
        },
        {
          "name": "currentBid",
          "type": "uint256"
        }
      ],
      "payable": false,
      "stateMutability": "view",
      "type": "function"
    },
    {
      "constant": true,
      "inputs": [
        {
          "name": "",
          "type": "address"
        }
      ],
      "name": "auctionRefunds",
      "outputs": [
        {
          "name": "",
          "type": "uint256"
        }
      ],
      "payable": false,
      "stateMutability": "view",
      "type": "function"
    },
    {
      "constant": true,
      "inputs": [
        {
          "name": "",
          "type": "address"
        },
        {
          "name": "",
          "type": "uint256"
        }
      ],
      "name": "auctionOwnerMap",
      "outputs": [
        {
          "name": "",
          "type": "uint256"
        }
      ],
      "payable": false,
      "stateMutability": "view",
      "type": "function"
    },
    {
      "inputs": [],
      "payable": false,
      "stateMutability": "nonpayable",
      "type": "constructor"
    },
    {
      "payable": false,
      "stateMutability": "nonpayable",
      "type": "fallback"
    },
    {
      "anonymous": false,
      "inputs": [
        {
          "indexed": false,
          "name": "message",
          "type": "string"
        }
      ],
      "name": "throwError",
      "type": "event"
    },
    {
      "anonymous": false,
      "inputs": [
        {
          "indexed": false,
          "name": "id",
          "type": "uint256"
        },
        {
          "indexed": false,
          "name": "title",
          "type": "string"
        },
        {
          "indexed": false,
          "name": "startingPrice",
          "type": "uint256"
        },
        {
          "indexed": false,
          "name": "reservePrice",
          "type": "uint256"
        }
      ],
      "name": "auctionCreated",
      "type": "event"
    },
    {
      "anonymous": false,
      "inputs": [
        {
          "indexed": false,
          "name": "id",
          "type": "uint256"
        }
      ],
      "name": "auctionStarted",
      "type": "event"
    },
    {
      "anonymous": false,
      "inputs": [
        {
          "indexed": false,
          "name": "id",
          "type": "uint256"
        }
      ],
      "name": "auctionCancelled",
      "type": "event"
    },
    {
      "anonymous": false,
      "inputs": [
        {
          "indexed": false,
          "name": "auctionId",
          "type": "uint256"
        },
        {
          "indexed": false,
          "name": "bidder",
          "type": "address"
        },
        {
          "indexed": false,
          "name": "amount",
          "type": "uint256"
        }
      ],
      "name": "bidPlaced",
      "type": "event"
    },
    {
      "anonymous": false,
      "inputs": [
        {
          "indexed": false,
          "name": "auctionId",
          "type": "uint256"
        },
        {
          "indexed": false,
          "name": "winningBidder",
          "type": "address"
        },
        {
          "indexed": false,
          "name": "amount",
          "type": "uint256"
        }
      ],
      "name": "auctionSold",
      "type": "event"
    },
    {
      "anonymous": false,
      "inputs": [
        {
          "indexed": false,
          "name": "auctionId",
          "type": "uint256"
        },
        {
          "indexed": false,
          "name": "topBid",
          "type": "uint256"
        },
        {
          "indexed": false,
          "name": "reservePrice",
          "type": "uint256"
        }
      ],
      "name": "auctionUnsold",
      "type": "event"
    },
    {
      "anonymous": false,
      "inputs": [
        {
          "indexed": false,
          "name": "amount",
          "type": "uint256"
        },
        {
          "indexed": false,
          "name": "accountAddress",
          "type": "address"
        }
      ],
      "name": "withdrawalSuccess",
      "type": "event"
    },
    {
      "constant": false,
      "inputs": [
        {
          "name": "_title",
          "type": "string"
        },
        {
          "name": "_description",
          "type": "string"
        },
        {
          "name": "_deadline",
          "type": "uint256"
        },
        {
          "name": "_startingPrice",
          "type": "uint256"
        },
        {
          "name": "_reservedPrice",
          "type": "uint256"
        }
      ],
      "name": "createAuction",
      "outputs": [
        {
          "name": "id",
          "type": "uint256"
        }
      ],
      "payable": false,
      "stateMutability": "nonpayable",
      "type": "function"
    },
    {
      "constant": true,
      "inputs": [
        {
          "name": "idx",
          "type": "uint256"
        }
      ],
      "name": "getAuction",
      "outputs": [
        {
          "name": "",
          "type": "address"
        },
        {
          "name": "",
          "type": "uint256"
        },
        {
          "name": "",
          "type": "string"
        },
        {
          "name": "",
          "type": "string"
        },
        {
          "name": "",
          "type": "uint256"
        },
        {
          "name": "",
          "type": "uint256"
        },
        {
          "name": "",
          "type": "uint256"
        },
        {
          "name": "",
          "type": "uint256"
        },
        {
          "name": "",
          "type": "uint256"
        }
      ],
      "payable": false,
      "stateMutability": "view",
      "type": "function"
    },
    {
      "constant": true,
      "inputs": [],
      "name": "getAuctionCount",
      "outputs": [
        {
          "name": "",
          "type": "uint256"
        }
      ],
      "payable": false,
      "stateMutability": "view",
      "type": "function"
    },
    {
      "constant": true,
      "inputs": [
        {
          "name": "idx",
          "type": "uint256"
        }
      ],
      "name": "getAuctionStatus",
      "outputs": [
        {
          "name": "",
          "type": "uint256"
        }
      ],
      "payable": false,
      "stateMutability": "view",
      "type": "function"
    },
    {
      "constant": true,
      "inputs": [
        {
          "name": "user",
          "type": "address"
        }
      ],
      "name": "getAuctionCountForUser",
      "outputs": [
        {
          "name": "",
          "type": "uint256"
        }
      ],
      "payable": false,
      "stateMutability": "view",
      "type": "function"
    },
    {
      "constant": true,
      "inputs": [
        {
          "name": "user",
          "type": "address"
        },
        {
          "name": "idx",
          "type": "uint256"
        }
      ],
      "name": "getAuctionIdForUserIdx",
      "outputs": [
        {
          "name": "",
          "type": "uint256"
        }
      ],
      "payable": false,
      "stateMutability": "view",
      "type": "function"
    },
    {
      "constant": true,
      "inputs": [
        {
          "name": "auctionId",
          "type": "uint256"
        }
      ],
      "name": "getBidCountForAuction",
      "outputs": [
        {
          "name": "",
          "type": "uint256"
        }
      ],
      "payable": false,
      "stateMutability": "view",
      "type": "function"
    },
    {
      "constant": false,
      "inputs": [
        {
          "name": "auctionId",
          "type": "uint256"
        }
      ],
      "name": "placeBid",
      "outputs": [
        {
          "name": "success",
          "type": "bool"
        }
      ],
      "payable": true,
      "stateMutability": "payable",
      "type": "function"
    },
    {
      "constant": true,
      "inputs": [],
      "name": "getRefundValue",
      "outputs": [
        {
          "name": "",
          "type": "uint256"
        }
      ],
      "payable": false,
      "stateMutability": "view",
      "type": "function"
    },
    {
      "constant": false,
      "inputs": [],
      "name": "withdrawRefund",
      "outputs": [],
      "payable": false,
      "stateMutability": "nonpayable",
      "type": "function"
    },
    {
      "constant": false,
      "inputs": [
        {
          "name": "auctionId",
          "type": "uint256"
        }
      ],
      "name": "endAuction",
      "outputs": [
        {
          "name": "success",
          "type": "bool"
        }
      ],
      "payable": false,
      "stateMutability": "nonpayable",
      "type": "function"
    }
  ],
  "bytecode": "0x608060405234801561001057600080fd5b50612bbe806100206000396000f3006080604052600436106100db576000357c0100000000000000000000000000000000000000000000000000000000900463ffffffff1680630ed0b8ca14610155578063110f8874146101ac5780633efe3146146101c35780634bc32ea214610224578063571a26a0146102655780635800eafa146103e257806359e54095146104c35780635ae374be146104ee578063676f58831461054f5780637765c52c146105a657806378bd7935146105e75780639979ef4514610756578063b9a2de3a1461078e578063c44e6640146107d3578063c838ef2c146107fe575b3480156100e757600080fd5b507fe93b6b241154b74690ce495fa4b632a330efb4fbe4ba969ca89eeefce8f4719f6040518080602001828103825260158152602001807f4572726f723a204e6f20646174612073656e742021000000000000000000000081525060200191505060405180910390a1600080fd5b34801561016157600080fd5b50610196600480360381019080803573ffffffffffffffffffffffffffffffffffffffff16906020019092919050505061085f565b6040518082815260200191505060405180910390f35b3480156101b857600080fd5b506101c16108ab565b005b3480156101cf57600080fd5b5061020e600480360381019080803573ffffffffffffffffffffffffffffffffffffffff16906020019092919080359060200190929190505050610b75565b6040518082815260200191505060405180910390f35b34801561023057600080fd5b5061024f60048036038101908080359060200190929190505050610ba5565b6040518082815260200191505060405180910390f35b34801561027157600080fd5b5061029060048036038101908080359060200190929190505050610ead565b604051808a73ffffffffffffffffffffffffffffffffffffffff1673ffffffffffffffffffffffffffffffffffffffff16815260200180602001898152602001806020018860018111156102e057fe5b60ff16815260200187815260200186815260200185815260200184815260200183810383528b818151815260200191508051906020019080838360005b8381101561033857808201518184015260208101905061031d565b50505050905090810190601f1680156103655780820380516001836020036101000a031916815260200191505b50838103825289818151815260200191508051906020019080838360005b8381101561039e578082015181840152602081019050610383565b50505050905090810190601f1680156103cb5780820380516001836020036101000a031916815260200191505b509b50505050505050505050505060405180910390f35b3480156103ee57600080fd5b506104ad600480360381019080803590602001908201803590602001908080601f0160208091040260200160405190810160405280939291908181526020018383808284378201915050505050509192919290803590602001908201803590602001908080601f0160208091040260200160405190810160405280939291908181526020018383808284378201915050505050509192919290803590602001909291908035906020019092919080359060200190929190505050611067565b6040518082815260200191505060405180910390f35b3480156104cf57600080fd5b506104d86113fb565b6040518082815260200191505060405180910390f35b3480156104fa57600080fd5b50610539600480360381019080803573ffffffffffffffffffffffffffffffffffffffff16906020019092919080359060200190929190505050611441565b6040518082815260200191505060405180910390f35b34801561055b57600080fd5b50610590600480360381019080803573ffffffffffffffffffffffffffffffffffffffff1690602001909291905050506114a2565b6040518082815260200191505060405180910390f35b3480156105b257600080fd5b506105d1600480360381019080803590602001909291905050506114ba565b6040518082815260200191505060405180910390f35b3480156105f357600080fd5b50610612600480360381019080803590602001909291905050506117cb565b604051808a73ffffffffffffffffffffffffffffffffffffffff1673ffffffffffffffffffffffffffffffffffffffff168152602001898152602001806020018060200188815260200187815260200186815260200185815260200184815260200183810383528a818151815260200191508051906020019080838360005b838110156106ac578082015181840152602081019050610691565b50505050905090810190601f1680156106d95780820380516001836020036101000a031916815260200191505b50838103825289818151815260200191508051906020019080838360005b838110156107125780820151818401526020810190506106f7565b50505050905090810190601f16801561073f5780820380516001836020036101000a031916815260200191505b509b50505050505050505050505060405180910390f35b61077460048036038101908080359060200190929190505050611b26565b604051808215151515815260200191505060405180910390f35b34801561079a57600080fd5b506107b9600480360381019080803590602001909291905050506122c2565b604051808215151515815260200191505060405180910390f35b3480156107df57600080fd5b506107e861282b565b6040518082815260200191505060405180910390f35b34801561080a57600080fd5b50610849600480360381019080803573ffffffffffffffffffffffffffffffffffffffff16906020019092919080359060200190929190505050612838565b6040518082815260200191505060405180910390f35b6000600160008373ffffffffffffffffffffffffffffffffffffffff1673ffffffffffffffffffffffffffffffffffffffff168152602001908152602001600020805490509050919050565b600060016000803373ffffffffffffffffffffffffffffffffffffffff1673ffffffffffffffffffffffffffffffffffffffff16815260200190815260200160002054039050600081111515610968577fe93b6b241154b74690ce495fa4b632a330efb4fbe4ba969ca89eeefce8f4719f60405180806020018281038252601e8152602001807f4572726f723a20496e76616c696420726566756e6420616d6f756e742021000081525060200191505060405180910390a1600080fd5b803073ffffffffffffffffffffffffffffffffffffffff1631111515610a1b577fe93b6b241154b74690ce495fa4b632a330efb4fbe4ba969ca89eeefce8f4719f6040518080602001828103825260388152602001807f4572726f723a20496e73696666696369656e742066756e647320696e20636f6e81526020017f74726163742c2054727920616761696e206c617465722021000000000000000081525060400191505060405180910390a1600080fd5b3373ffffffffffffffffffffffffffffffffffffffff166108fc829081150290604051600060405180830381858888f1935050505015610b09577f36bbfbddde956e56b1207118cad8f9b5b1d518703df3b3a5a0ed1ccc1b3c24148133604051808381526020018273ffffffffffffffffffffffffffffffffffffffff1673ffffffffffffffffffffffffffffffffffffffff1681526020019250505060405180910390a160008060003373ffffffffffffffffffffffffffffffffffffffff1673ffffffffffffffffffffffffffffffffffffffff16815260200190815260200160002081905550610b72565b7fe93b6b241154b74690ce495fa4b632a330efb4fbe4ba969ca89eeefce8f4719f6040518080602001828103825260118152602001807f5769746864726177206661696c6564202100000000000000000000000000000081525060200191505060405180910390a15b50565b600260205281600052604060002081815481101515610b9057fe5b90600052602060002001600091509150505481565b6000610baf612868565b600383815481101515610bbe57fe5b90600052602060002090600a020161014060405190810160405290816000820160009054906101000a900473ffffffffffffffffffffffffffffffffffffffff1673ffffffffffffffffffffffffffffffffffffffff1673ffffffffffffffffffffffffffffffffffffffff168152602001600182018054600181600116156101000203166002900480601f016020809104026020016040519081016040528092919081815260200182805460018160011615610100020316600290048015610cc85780601f10610c9d57610100808354040283529160200191610cc8565b820191906000526020600020905b815481529060010190602001808311610cab57829003601f168201915b5050505050815260200160028201548152602001600382018054600181600116156101000203166002900480601f016020809104026020016040519081016040528092919081815260200182805460018160011615610100020316600290048015610d745780601f10610d4957610100808354040283529160200191610d74565b820191906000526020600020905b815481529060010190602001808311610d5757829003601f168201915b505050505081526020016004820160009054906101000a900460ff166001811115610d9b57fe5b6001811115610da657fe5b81526020016005820154815260200160068201548152602001600782015481526020016008820154815260200160098201805480602002602001604051908101604052809291908181526020016000905b82821015610e945783829060005260206000209060030201606060405190810160405290816000820160009054906101000a900473ffffffffffffffffffffffffffffffffffffffff1673ffffffffffffffffffffffffffffffffffffffff1673ffffffffffffffffffffffffffffffffffffffff1681526020016001820154815260200160028201548152505081526020019060010190610df7565b5050505081525050905080610120015151915050919050565b600381815481101515610ebc57fe5b90600052602060002090600a02016000915090508060000160009054906101000a900473ffffffffffffffffffffffffffffffffffffffff1690806001018054600181600116156101000203166002900480601f016020809104026020016040519081016040528092919081815260200182805460018160011615610100020316600290048015610f8e5780601f10610f6357610100808354040283529160200191610f8e565b820191906000526020600020905b815481529060010190602001808311610f7157829003601f168201915b505050505090806002015490806003018054600181600116156101000203166002900480601f0160208091040260200160405190810160405280929190818152602001828054600181600116156101000203166002900480156110325780601f1061100757610100808354040283529160200191611032565b820191906000526020600020905b81548152906001019060200180831161101557829003601f168201915b5050505050908060040160009054906101000a900460ff16908060050154908060060154908060070154908060080154905089565b60008084431015156110e0577fe93b6b241154b74690ce495fa4b632a330efb4fbe4ba969ca89eeefce8f4719f6040518080602001828103825260188152602001807f496e76616c696420646561646c696e6520656e7465726564000000000000000081525060200191505060405180910390a1600080fd5b60008410806110ef5750600083105b806110f957508383105b15611191577fe93b6b241154b74690ce495fa4b632a330efb4fbe4ba969ca89eeefce8f4719f6040518080602001828103825260278152602001807f496e76616c69642076616c756520656e746572656420666f722070726963652081526020017f73656374696f6e0000000000000000000000000000000000000000000000000081525060400191505060405180910390a1600080fd5b600380548091906001016111a591906128dd565b91506003828154811015156111b657fe5b90600052602060002090600a02019050338160000160006101000a81548173ffffffffffffffffffffffffffffffffffffffff021916908373ffffffffffffffffffffffffffffffffffffffff1602179055508681600101908051906020019061122192919061290f565b508181600201819055508581600301908051906020019061124392919061290f565b5060008160040160006101000a81548160ff0219169083600181111561126557fe5b0217905550848160050181905550838160060181905550828160070181905550600160008260000160009054906101000a900473ffffffffffffffffffffffffffffffffffffffff1673ffffffffffffffffffffffffffffffffffffffff1673ffffffffffffffffffffffffffffffffffffffff1681526020019081526020016000208290806001815401808255809150509060018203906000526020600020016000909192909190915055507f3913e02939edbf80317fb8918381046a1077ae115a5a3a3e1d8551874d53b3c182826001018360060154846007015460405180858152602001806020018481526020018381526020018281038252858181546001816001161561010002031660029004815260200191508054600181600116156101000203166002900480156113dd5780601f106113b2576101008083540402835291602001916113dd565b820191906000526020600020905b8154815290600101906020018083116113c057829003601f168201915b50509550505050505060405180910390a18191505095945050505050565b60008060003373ffffffffffffffffffffffffffffffffffffffff1673ffffffffffffffffffffffffffffffffffffffff16815260200190815260200160002054905090565b6000600160008473ffffffffffffffffffffffffffffffffffffffff1673ffffffffffffffffffffffffffffffffffffffff1681526020019081526020016000208281548110151561148f57fe5b9060005260206000200154905092915050565b60006020528060005260406000206000915090505481565b60006114c4612868565b6003838154811015156114d357fe5b90600052602060002090600a020161014060405190810160405290816000820160009054906101000a900473ffffffffffffffffffffffffffffffffffffffff1673ffffffffffffffffffffffffffffffffffffffff1673ffffffffffffffffffffffffffffffffffffffff168152602001600182018054600181600116156101000203166002900480601f0160208091040260200160405190810160405280929190818152602001828054600181600116156101000203166002900480156115dd5780601f106115b2576101008083540402835291602001916115dd565b820191906000526020600020905b8154815290600101906020018083116115c057829003601f168201915b5050505050815260200160028201548152602001600382018054600181600116156101000203166002900480601f0160208091040260200160405190810160405280929190818152602001828054600181600116156101000203166002900480156116895780601f1061165e57610100808354040283529160200191611689565b820191906000526020600020905b81548152906001019060200180831161166c57829003601f168201915b505050505081526020016004820160009054906101000a900460ff1660018111156116b057fe5b60018111156116bb57fe5b81526020016005820154815260200160068201548152602001600782015481526020016008820154815260200160098201805480602002602001604051908101604052809291908181526020016000905b828210156117a95783829060005260206000209060030201606060405190810160405290816000820160009054906101000a900473ffffffffffffffffffffffffffffffffffffffff1673ffffffffffffffffffffffffffffffffffffffff1673ffffffffffffffffffffffffffffffffffffffff168152602001600182015481526020016002820154815250508152602001906001019061170c565b50505050815250509050806080015160018111156117c357fe5b915050919050565b60008060608060008060008060006117e1612868565b60038b8154811015156117f057fe5b90600052602060002090600a020161014060405190810160405290816000820160009054906101000a900473ffffffffffffffffffffffffffffffffffffffff1673ffffffffffffffffffffffffffffffffffffffff1673ffffffffffffffffffffffffffffffffffffffff168152602001600182018054600181600116156101000203166002900480601f0160208091040260200160405190810160405280929190818152602001828054600181600116156101000203166002900480156118fa5780601f106118cf576101008083540402835291602001916118fa565b820191906000526020600020905b8154815290600101906020018083116118dd57829003601f168201915b5050505050815260200160028201548152602001600382018054600181600116156101000203166002900480601f0160208091040260200160405190810160405280929190818152602001828054600181600116156101000203166002900480156119a65780601f1061197b576101008083540402835291602001916119a6565b820191906000526020600020905b81548152906001019060200180831161198957829003601f168201915b505050505081526020016004820160009054906101000a900460ff1660018111156119cd57fe5b60018111156119d857fe5b81526020016005820154815260200160068201548152602001600782015481526020016008820154815260200160098201805480602002602001604051908101604052809291908181526020016000905b82821015611ac65783829060005260206000209060030201606060405190810160405290816000820160009054906101000a900473ffffffffffffffffffffffffffffffffffffffff1673ffffffffffffffffffffffffffffffffffffffff1673ffffffffffffffffffffffffffffffffffffffff1681526020016001820154815260200160028201548152505081526020019060010190611a29565b5050505081525050905080600001518160400151826020015183606001518460a001518560c001518660e0015187610100015188610120015151869650859550995099509950995099509950995099509950509193959799909294969850565b6000806000806000611b3661298f565b86611b3f612868565b600382815481101515611b4e57fe5b90600052602060002090600a020161014060405190810160405290816000820160009054906101000a900473ffffffffffffffffffffffffffffffffffffffff1673ffffffffffffffffffffffffffffffffffffffff1673ffffffffffffffffffffffffffffffffffffffff168152602001600182018054600181600116156101000203166002900480601f016020809104026020016040519081016040528092919081815260200182805460018160011615610100020316600290048015611c585780601f10611c2d57610100808354040283529160200191611c58565b820191906000526020600020905b815481529060010190602001808311611c3b57829003601f168201915b5050505050815260200160028201548152602001600382018054600181600116156101000203166002900480601f016020809104026020016040519081016040528092919081815260200182805460018160011615610100020316600290048015611d045780601f10611cd957610100808354040283529160200191611d04565b820191906000526020600020905b815481529060010190602001808311611ce757829003601f168201915b505050505081526020016004820160009054906101000a900460ff166001811115611d2b57fe5b6001811115611d3657fe5b81526020016005820154815260200160068201548152602001600782015481526020016008820154815260200160098201805480602002602001604051908101604052809291908181526020016000905b82821015611e245783829060005260206000209060030201606060405190810160405290816000820160009054906101000a900473ffffffffffffffffffffffffffffffffffffffff1673ffffffffffffffffffffffffffffffffffffffff1673ffffffffffffffffffffffffffffffffffffffff1681526020016001820154815260200160028201548152505081526020019060010190611d87565b5050505081525050905060006001811115611e3b57fe5b81608001516001811115611e4b57fe5b141515611ebf577fe93b6b241154b74690ce495fa4b632a330efb4fbe4ba969ca89eeefce8f4719f60405180806020018281038252601c8152602001807f4572726f723a2041756374696f6e206973206e6f74206c69766520210000000081525060200191505060405180910390a1600080fd5b8060a0015143101515611f39577fe93b6b241154b74690ce495fa4b632a330efb4fbe4ba969ca89eeefce8f4719f60405180806020018281038252601d8152602001807f4572726f723a20446561646c696e65206861732063726f73736564202100000081525060200191505060405180910390a1600080fd5b349650600389815481101515611f4b57fe5b90600052602060002090600a02019550868660080154101515611ffb577fe93b6b241154b74690ce495fa4b632a330efb4fbe4ba969ca89eeefce8f4719f60405180806020018281038252602f8152602001807f4572726f723a20416d6f756e7420626964206973206c657373207468616e207481526020017f6865206c6174657374206269642021000000000000000000000000000000000081525060400191505060405180910390a1600080fd5b85600901805480919060010161201191906129c7565b9450856009018581548110151561202457fe5b90600052602060002090600302019350338460000160006101000a81548173ffffffffffffffffffffffffffffffffffffffff021916908373ffffffffffffffffffffffffffffffffffffffff160217905550868460010181905550428460020181905550868660080181905550600260008560000160009054906101000a900473ffffffffffffffffffffffffffffffffffffffff1673ffffffffffffffffffffffffffffffffffffffff1673ffffffffffffffffffffffffffffffffffffffff168152602001908152602001600020899080600181540180825580915050906001820390600052602060002001600090919290919091505550600085111561221757856009016001860381548110151561213c57fe5b9060005260206000209060030201606060405190810160405290816000820160009054906101000a900473ffffffffffffffffffffffffffffffffffffffff1673ffffffffffffffffffffffffffffffffffffffff1673ffffffffffffffffffffffffffffffffffffffff1681526020016001820154815260200160028201548152505092508260200151600080856000015173ffffffffffffffffffffffffffffffffffffffff1673ffffffffffffffffffffffffffffffffffffffff168152602001908152602001600020600082825401925050819055505b7fb709f01451ed0783e7600e0c31d1df63da03b66b3caf7cddde880f0774332ba6898560000160009054906101000a900473ffffffffffffffffffffffffffffffffffffffff168660010154604051808481526020018373ffffffffffffffffffffffffffffffffffffffff1673ffffffffffffffffffffffffffffffffffffffff168152602001828152602001935050505060405180910390a16001975050505050505050919050565b60006122cc612868565b6122d461298f565b6003848154811015156122e357fe5b90600052602060002090600a020161014060405190810160405290816000820160009054906101000a900473ffffffffffffffffffffffffffffffffffffffff1673ffffffffffffffffffffffffffffffffffffffff1673ffffffffffffffffffffffffffffffffffffffff168152602001600182018054600181600116156101000203166002900480601f0160208091040260200160405190810160405280929190818152602001828054600181600116156101000203166002900480156123ed5780601f106123c2576101008083540402835291602001916123ed565b820191906000526020600020905b8154815290600101906020018083116123d057829003601f168201915b5050505050815260200160028201548152602001600382018054600181600116156101000203166002900480601f0160208091040260200160405190810160405280929190818152602001828054600181600116156101000203166002900480156124995780601f1061246e57610100808354040283529160200191612499565b820191906000526020600020905b81548152906001019060200180831161247c57829003601f168201915b505050505081526020016004820160009054906101000a900460ff1660018111156124c057fe5b60018111156124cb57fe5b81526020016005820154815260200160068201548152602001600782015481526020016008820154815260200160098201805480602002602001604051908101604052809291908181526020016000905b828210156125b95783829060005260206000209060030201606060405190810160405290816000820160009054906101000a900473ffffffffffffffffffffffffffffffffffffffff1673ffffffffffffffffffffffffffffffffffffffff1673ffffffffffffffffffffffffffffffffffffffff168152602001600182015481526020016002820154815250508152602001906001019061251c565b505050508152505091506000826101200151511415612646576001826080019060018111156125e457fe5b908160018111156125f157fe5b815250507fc7b395a303219d5d5f7a4c864d58f8c0af7795a5422b2f80b388db71cd1f49558460008060405180848152602001838152602001828152602001935050505060405180910390a160019250612824565b8161012001516001836101200151510381518110151561266257fe5b9060200190602002015190508160e0015182610100015110151561275657816101000151600080846000015173ffffffffffffffffffffffffffffffffffffffff1673ffffffffffffffffffffffffffffffffffffffff168152602001908152602001600020600082825401925050819055507fb6960844299a34cf45d2e96283688ebffa0008fc037a322fc44667e2f4d21ab7848260000151846101000151604051808481526020018373ffffffffffffffffffffffffffffffffffffffff1673ffffffffffffffffffffffffffffffffffffffff168152602001828152602001935050505060405180910390a16127fc565b816101000151600080836000015173ffffffffffffffffffffffffffffffffffffffff1673ffffffffffffffffffffffffffffffffffffffff168152602001908152602001600020600082825401925050819055507fc7b395a303219d5d5f7a4c864d58f8c0af7795a5422b2f80b388db71cd1f4955848361010001518460e0015160405180848152602001838152602001828152602001935050505060405180910390a15b60018260800190600181111561280e57fe5b9081600181111561281b57fe5b81525050600192505b5050919050565b6000600380549050905090565b60016020528160005260406000208181548110151561285357fe5b90600052602060002001600091509150505481565b61014060405190810160405280600073ffffffffffffffffffffffffffffffffffffffff168152602001606081526020016000815260200160608152602001600060018111156128b457fe5b815260200160008152602001600081526020016000815260200160008152602001606081525090565b81548183558181111561290a57600a0281600a02836000526020600020918201910161290991906129f9565b5b505050565b828054600181600116156101000203166002900490600052602060002090601f016020900481019282601f1061295057805160ff191683800117855561297e565b8280016001018555821561297e579182015b8281111561297d578251825591602001919060010190612962565b5b50905061298b9190612aab565b5090565b606060405190810160405280600073ffffffffffffffffffffffffffffffffffffffff16815260200160008152602001600081525090565b8154818355818111156129f4576003028160030283600052602060002091820191016129f39190612ad0565b5b505050565b612aa891905b80821115612aa457600080820160006101000a81549073ffffffffffffffffffffffffffffffffffffffff0219169055600182016000612a3f9190612b26565b6002820160009055600382016000612a579190612b26565b6004820160006101000a81549060ff02191690556005820160009055600682016000905560078201600090556008820160009055600982016000612a9b9190612b6e565b50600a016129ff565b5090565b90565b612acd91905b80821115612ac9576000816000905550600101612ab1565b5090565b90565b612b2391905b80821115612b1f57600080820160006101000a81549073ffffffffffffffffffffffffffffffffffffffff02191690556001820160009055600282016000905550600301612ad6565b5090565b90565b50805460018160011615610100020316600290046000825580601f10612b4c5750612b6b565b601f016020900490600052602060002090810190612b6a9190612aab565b5b50565b5080546000825560030290600052602060002090810190612b8f9190612ad0565b505600a165627a7a72305820dadf30bcd9ddf7effe2921ba88288841fcffb7c276c9c0e0c3363b3b4522d62f0029",
  "source": "pragma solidity ^0.4.2;\n\ncontract bidfinex {\n    \n    struct bid\n    {\n        address bidder;\n        uint256 amount;\n        uint timestamp;\n    }\n\n    enum auctionStatus { Live, Dead }\n\n    struct auction {\n        address seller;\n        string title;\n        uint auctionId;\n        string description;\n        auctionStatus status;\n        uint deadline;\n        uint256 startingPrice;\n        uint256 reservedPrice;\n        uint256 currentBid;\n        bid[] bids;\n    }\n\n    mapping(address => uint256) public auctionRefunds;\n    mapping(address => uint[]) public auctionOwnerMap;\n    mapping(address => uint[]) public auctionBidderMap;\n    \n    auction[] public auctions;\n    \n    modifier onlySeller (uint auctionId) {\n        if (auctions[auctionId].seller != msg.sender)\n        {\n            emit throwError(\"Error: You are not the seller of this auction !\");\n            revert();\n        }\n        _;\n    }\n\n    modifier onlyActive (uint auctionId) {\n        auction memory temp = auctions[auctionId];\n        \n        if (temp.status != auctionStatus.Live)\n        {\n            emit throwError(\"Error: Auction is not live !\");            \n            revert();\n        }\n\n        else if (block.number >= temp.deadline)\n        {\n            emit throwError(\"Error: Deadline has crossed !\");                        \n            revert();\n        }\n        _;\n    }\n\n    event throwError(string message);\n    event auctionCreated(uint id, string title, uint256 startingPrice, uint256 reservePrice);\n    event auctionStarted(uint id);\n    event auctionCancelled(uint id);\n    event bidPlaced(uint auctionId, address bidder, uint256 amount);\n    event auctionSold(uint auctionId, address winningBidder, uint256 amount);\n    event auctionUnsold(uint auctionId, uint256 topBid, uint256 reservePrice);\n    event withdrawalSuccess(uint amount, address accountAddress);\n\n    constructor() public {\n    }\n\n    function createAuction( string _title,\n                            string _description,\n                            uint _deadline,\n                            uint256 _startingPrice,\n                            uint256 _reservedPrice )\n                            public returns (uint id)\n    {\n        if(block.number >= _deadline)\n        {\n            emit throwError(\"Invalid deadline entered\");\n            revert();\n        }\n\n        if (_startingPrice < 0 || _reservedPrice < 0 || _reservedPrice < _startingPrice)\n        {\n            emit throwError(\"Invalid value entered for price section\");\n            revert();\n        }\n\n        id = auctions.length++;\n        auction storage newAuction = auctions[id];\n        \n        newAuction.seller = msg.sender;\n        newAuction.title = _title;\n        newAuction.auctionId = id;\n        newAuction.description = _description;\n        newAuction.status = auctionStatus.Live;\n        newAuction.deadline = _deadline;\n        newAuction.startingPrice = _startingPrice;\n        newAuction.reservedPrice = _reservedPrice;\n\n        auctionOwnerMap[newAuction.seller].push(id);\n\n        emit auctionCreated(id, newAuction.title, newAuction.startingPrice, newAuction.reservedPrice);\n\n        return id;\n    }\n    \n    function getAuction(uint idx) public view returns (address, uint, string, string, uint, uint256, uint256, uint256, uint)\n    {\n        auction memory temp = auctions[idx];\n        return (temp.seller,\n                temp.auctionId,\n                temp.title,\n                temp.description,\n                temp.deadline,\n                temp.startingPrice,\n                temp.reservedPrice,\n                temp.currentBid,\n                temp.bids.length);\n    }\n\n    /*\n    0 -> Seller\n    1 -> Auction ID\n    2 -> Title\n    3 -> Description\n    4 -> Deadline\n    5 -> Starting price\n    6 -> Reserved price\n    7 -> Current bid\n    8 -> # of bids\n    */\n    function getAuctionCount() public view returns (uint)\n    {\n        return auctions.length;\n    }\n\n    function getAuctionStatus(uint idx) public view returns (uint)\n    {\n        auction memory temp = auctions[idx];\n        return uint(temp.status);\n    }\n\n    function getAuctionCountForUser(address user) public view returns (uint)\n    {\n        return auctionOwnerMap[user].length;\n    }\n\n    function getAuctionIdForUserIdx(address user, uint idx) public view returns (uint)\n    {\n        return auctionOwnerMap[user][idx];\n    }\n\n    function getBidCountForAuction(uint auctionId) public view returns (uint)\n    {\n        auction memory temp = auctions[auctionId];\n        return temp.bids.length;\n    }\n    \n    function placeBid(uint auctionId) public payable onlyActive(auctionId) returns (bool success)\n    {\n        uint256 amount = msg.value;\n        auction storage temp = auctions[auctionId];\n\n        if (temp.currentBid >= amount)\n        {\n            emit throwError(\"Error: Amount bid is less than the latest bid !\");\n            revert();\n        }\n\n        uint bidIdx = temp.bids.length++;\n        bid storage tempBid = temp.bids[bidIdx];\n        tempBid.bidder = msg.sender;\n        tempBid.amount = amount;\n        tempBid.timestamp = block.timestamp;\n        temp.currentBid = amount;\n\n        auctionBidderMap[tempBid.bidder].push(auctionId);\n\n        // Log refunds for the previous bidder\n        if (bidIdx > 0) {\n            bid memory previousBid = temp.bids[bidIdx - 1];\n            auctionRefunds[previousBid.bidder] += previousBid.amount;\n        }\n\n        emit bidPlaced(auctionId, tempBid.bidder, tempBid.amount);\n        return true;\n    }\n\n    function getRefundValue() public view returns (uint) {\n        return auctionRefunds[msg.sender];\n    }\n\n    function withdrawRefund() public {\n        uint256 refund = auctionRefunds[msg.sender] - 1;\n\n        if (refund <= 0)\n        {\n            emit throwError(\"Error: Invalid refund amount !\");\n            revert();\n        }\n        else if(address(this).balance <= refund)\n        {\n            emit throwError(\"Error: Insifficient funds in contract, Try again later !\");\n            revert();\n        }\n\n        if(msg.sender.send(refund))\n        {\n            emit withdrawalSuccess(refund, msg.sender);\n            auctionRefunds[msg.sender] = 0;\n        }\n        else\n        {\n            emit throwError(\"Withdraw failed !\");\n        }\n    }\n\n    function endAuction(uint auctionId) public returns (bool success)\n    {\n        auction memory temp = auctions[auctionId];\n\n        if (temp.bids.length == 0) {\n            temp.status = auctionStatus.Dead;\n            emit auctionUnsold(auctionId, 0, 0);\n            return true;\n        }\n\n        else\n        {\n            bid memory topBid = temp.bids[temp.bids.length - 1];\n\n            if (temp.currentBid >= temp.reservedPrice)\n            {\n                auctionRefunds[temp.seller] += temp.currentBid;\n                emit auctionSold(auctionId, topBid.bidder, temp.currentBid);\n            }\n            else\n            {\n                auctionRefunds[topBid.bidder] += temp.currentBid;\n                emit auctionUnsold(auctionId, temp.currentBid, temp.reservedPrice);\n            }\n\n            temp.status = auctionStatus.Dead;\n            return true;\n        }\n    }\n\n    function () public {\n        emit throwError(\"Error: No data sent !\");\n        revert();\n    }\n}",
  "sourcePath": "C:\\Users\\Helios\\Desktop\\Proj\\bidfinex\\contracts\\bidfinex.sol",
  "compiler": {
    "name": "solc",
    "version": "0.4.23+commit.124ca40d.Emscripten.clang"
  },
  "schemaVersion": "2.0.0",
  "updatedAt": "2018-04-28T02:40:49.522Z"
}