{
  "contractName": "bidfinex",
  "abi": [
    {
      "constant": true,
      "inputs": [
        {
          "name": "",
          "type": "address"
        },
        {
          "name": "",
          "type": "uint256"
        }
      ],
      "name": "auctionRefunds",
      "outputs": [
        {
          "name": "",
          "type": "uint256"
        }
      ],
      "payable": false,
      "stateMutability": "view",
      "type": "function"
    },
    {
      "constant": true,
      "inputs": [
        {
          "name": "",
          "type": "address"
        },
        {
          "name": "",
          "type": "uint256"
        }
      ],
      "name": "auctionBidderMap",
      "outputs": [
        {
          "name": "",
          "type": "uint256"
        }
      ],
      "payable": false,
      "stateMutability": "view",
      "type": "function"
    },
    {
      "constant": true,
      "inputs": [
        {
          "name": "",
          "type": "uint256"
        }
      ],
      "name": "auctions",
      "outputs": [
        {
          "name": "seller",
          "type": "address"
        },
        {
          "name": "title",
          "type": "string"
        },
        {
          "name": "recordId",
          "type": "string"
        },
        {
          "name": "description",
          "type": "string"
        },
        {
          "name": "status",
          "type": "uint8"
        },
        {
          "name": "deadline",
          "type": "uint256"
        },
        {
          "name": "productAddress",
          "type": "address"
        },
        {
          "name": "startingPrice",
          "type": "uint256"
        },
        {
          "name": "reservedPrice",
          "type": "uint256"
        },
        {
          "name": "currentBid",
          "type": "uint256"
        }
      ],
      "payable": false,
      "stateMutability": "view",
      "type": "function"
    },
    {
      "constant": true,
      "inputs": [
        {
          "name": "",
          "type": "address"
        },
        {
          "name": "",
          "type": "uint256"
        }
      ],
      "name": "auctionOwnerMap",
      "outputs": [
        {
          "name": "",
          "type": "uint256"
        }
      ],
      "payable": false,
      "stateMutability": "view",
      "type": "function"
    },
    {
      "inputs": [],
      "payable": false,
      "stateMutability": "nonpayable",
      "type": "constructor"
    },
    {
      "anonymous": false,
      "inputs": [
        {
          "indexed": false,
          "name": "message",
          "type": "string"
        }
      ],
      "name": "throwError",
      "type": "event"
    },
    {
      "anonymous": false,
      "inputs": [
        {
          "indexed": false,
          "name": "id",
          "type": "uint256"
        },
        {
          "indexed": false,
          "name": "title",
          "type": "string"
        },
        {
          "indexed": false,
          "name": "startingPrice",
          "type": "uint256"
        },
        {
          "indexed": false,
          "name": "reservePrice",
          "type": "uint256"
        }
      ],
      "name": "auctionCreated",
      "type": "event"
    },
    {
      "anonymous": false,
      "inputs": [
        {
          "indexed": false,
          "name": "id",
          "type": "uint256"
        }
      ],
      "name": "auctionStarted",
      "type": "event"
    },
    {
      "anonymous": false,
      "inputs": [
        {
          "indexed": false,
          "name": "id",
          "type": "uint256"
        }
      ],
      "name": "auctionCancelled",
      "type": "event"
    },
    {
      "anonymous": false,
      "inputs": [
        {
          "indexed": false,
          "name": "auctionId",
          "type": "uint256"
        },
        {
          "indexed": false,
          "name": "bidder",
          "type": "address"
        },
        {
          "indexed": false,
          "name": "amount",
          "type": "uint256"
        }
      ],
      "name": "bidPlaced",
      "type": "event"
    },
    {
      "anonymous": false,
      "inputs": [
        {
          "indexed": false,
          "name": "auctionId",
          "type": "uint256"
        },
        {
          "indexed": false,
          "name": "winningBidder",
          "type": "address"
        },
        {
          "indexed": false,
          "name": "amount",
          "type": "uint256"
        }
      ],
      "name": "auctionSold",
      "type": "event"
    },
    {
      "anonymous": false,
      "inputs": [
        {
          "indexed": false,
          "name": "auctionId",
          "type": "uint256"
        },
        {
          "indexed": false,
          "name": "topBid",
          "type": "uint256"
        },
        {
          "indexed": false,
          "name": "reservePrice",
          "type": "uint256"
        }
      ],
      "name": "auctionUnsold",
      "type": "event"
    },
    {
      "constant": false,
      "inputs": [
        {
          "name": "_title",
          "type": "string"
        },
        {
          "name": "_description",
          "type": "string"
        },
        {
          "name": "_productAddress",
          "type": "address"
        },
        {
          "name": "_recordId",
          "type": "string"
        },
        {
          "name": "_deadline",
          "type": "uint256"
        },
        {
          "name": "_startingPrice",
          "type": "uint256"
        },
        {
          "name": "_reservedPrice",
          "type": "uint256"
        }
      ],
      "name": "createAuction",
      "outputs": [
        {
          "name": "auctionId",
          "type": "uint256"
        }
      ],
      "payable": false,
      "stateMutability": "nonpayable",
      "type": "function"
    }
  ],
  "bytecode": "0x6060604052341561000f57600080fd5b33600560006101000a81548173ffffffffffffffffffffffffffffffffffffffff021916908373ffffffffffffffffffffffffffffffffffffffff16021790555061117e8061005f6000396000f30060606040526004361061006d576000357c0100000000000000000000000000000000000000000000000000000000900463ffffffff1680630e23db54146100725780633efe3146146100c8578063571a26a01461011e578063b982dc6f14610380578063c838ef2c146104b1575b600080fd5b341561007d57600080fd5b6100b2600480803573ffffffffffffffffffffffffffffffffffffffff16906020019091908035906020019091905050610507565b6040518082815260200191505060405180910390f35b34156100d357600080fd5b610108600480803573ffffffffffffffffffffffffffffffffffffffff16906020019091908035906020019091905050610538565b6040518082815260200191505060405180910390f35b341561012957600080fd5b61013f6004808035906020019091905050610569565b604051808b73ffffffffffffffffffffffffffffffffffffffff1673ffffffffffffffffffffffffffffffffffffffff1681526020018060200180602001806020018a600281111561018d57fe5b60ff1681526020018981526020018873ffffffffffffffffffffffffffffffffffffffff1673ffffffffffffffffffffffffffffffffffffffff16815260200187815260200186815260200185815260200184810384528d8181546001816001161561010002031660029004815260200191508054600181600116156101000203166002900480156102605780601f1061023557610100808354040283529160200191610260565b820191906000526020600020905b81548152906001019060200180831161024357829003601f168201915b505084810383528c8181546001816001161561010002031660029004815260200191508054600181600116156101000203166002900480156102e35780601f106102b8576101008083540402835291602001916102e3565b820191906000526020600020905b8154815290600101906020018083116102c657829003601f168201915b505084810382528b8181546001816001161561010002031660029004815260200191508054600181600116156101000203166002900480156103665780601f1061033b57610100808354040283529160200191610366565b820191906000526020600020905b81548152906001019060200180831161034957829003601f168201915b50509d505050505050505050505050505060405180910390f35b341561038b57600080fd5b61049b600480803590602001908201803590602001908080601f0160208091040260200160405190810160405280939291908181526020018383808284378201915050505050509190803590602001908201803590602001908080601f0160208091040260200160405190810160405280939291908181526020018383808284378201915050505050509190803573ffffffffffffffffffffffffffffffffffffffff1690602001909190803590602001908201803590602001908080601f01602080910402602001604051908101604052809392919081815260200183838082843782019150505050505091908035906020019091908035906020019091908035906020019091905050610616565b6040518082815260200191505060405180910390f35b34156104bc57600080fd5b6104f1600480803573ffffffffffffffffffffffffffffffffffffffff16906020019091908035906020019091905050610b9d565b6040518082815260200191505060405180910390f35b60006020528160005260406000208181548110151561052257fe5b9060005260206000209001600091509150505481565b60026020528160005260406000208181548110151561055357fe5b9060005260206000209001600091509150505481565b60048181548110151561057857fe5b90600052602060002090600b02016000915090508060000160009054906101000a900473ffffffffffffffffffffffffffffffffffffffff16908060010190806002019080600301908060040160009054906101000a900460ff16908060050154908060060160009054906101000a900473ffffffffffffffffffffffffffffffffffffffff1690806007015490806008015490806009015490508a565b600080844310151561068f577fe93b6b241154b74690ce495fa4b632a330efb4fbe4ba969ca89eeefce8f4719f6040518080602001828103825260188152602001807f496e76616c696420646561646c696e6520656e7465726564000000000000000081525060200191505060405180910390a1600080fd5b600084108061069e5750600083105b806106a857508383105b15610740577fe93b6b241154b74690ce495fa4b632a330efb4fbe4ba969ca89eeefce8f4719f6040518080602001828103825260278152602001807f496e76616c69642076616c756520656e746572656420666f722070726963652081526020017f73656374696f6e0000000000000000000000000000000000000000000000000081525060400191505060405180910390a1600080fd5b6001151560036107586107528a610bce565b89610cb4565b6040518082805190602001908083835b60208310151561078d5780518252602082019150602081019050602083039250610768565b6001836020036101000a038019825116818451168082178552505050505050905001915050908152602001604051809103902060009054906101000a900460ff1615151415610843577fe93b6b241154b74690ce495fa4b632a330efb4fbe4ba969ca89eeefce8f4719f6040518080602001828103825260178152602001807f4974656d20616c726561647920696e2061756374696f6e00000000000000000081525060200191505060405180910390a1600080fd5b600480548091906001016108579190610e84565b915060048281548110151561086857fe5b90600052602060002090600b02019050338160000160006101000a81548173ffffffffffffffffffffffffffffffffffffffff021916908373ffffffffffffffffffffffffffffffffffffffff160217905550888160010190805190602001906108d3929190610eb6565b50858160020190805190602001906108ec929190610eb6565b5087816003019080519060200190610905929190610eb6565b5060008160040160006101000a81548160ff0219169083600281111561092757fe5b0217905550848160050181905550868160060160006101000a81548173ffffffffffffffffffffffffffffffffffffffff021916908373ffffffffffffffffffffffffffffffffffffffff160217905550838160070181905550828160080181905550828160090181905550600160008260000160009054906101000a900473ffffffffffffffffffffffffffffffffffffffff1673ffffffffffffffffffffffffffffffffffffffff1673ffffffffffffffffffffffffffffffffffffffff1681526020019081526020016000208054806001018281610a089190610f36565b91600052602060002090016000849091909150555060016003610a33610a2d8a610bce565b89610cb4565b6040518082805190602001908083835b602083101515610a685780518252602082019150602081019050602083039250610a43565b6001836020036101000a038019825116818451168082178552505050505050905001915050908152602001604051809103902060006101000a81548160ff0219169083151502179055507f3913e02939edbf80317fb8918381046a1077ae115a5a3a3e1d8551874d53b3c18282600101836007015484600801546040518085815260200180602001848152602001838152602001828103825285818154600181600116156101000203166002900481526020019150805460018160011615610100020316600290048015610b7d5780601f10610b5257610100808354040283529160200191610b7d565b820191906000526020600020905b815481529060010190602001808311610b6057829003601f168201915b50509550505050505060405180910390a181915050979650505050505050565b600160205281600052604060002081815481101515610bb857fe5b9060005260206000209001600091509150505481565b610bd6610f62565b610bde610f76565b60006014604051805910610bef5750595b9080825280601f01601f19166020018201604052509150600090505b6014811015610caa578060130360080260020a8473ffffffffffffffffffffffffffffffffffffffff16811515610c3e57fe5b047f0100000000000000000000000000000000000000000000000000000000000000028282815181101515610c6f57fe5b9060200101907effffffffffffffffffffffffffffffffffffffffffffffffffffffffffffff1916908160001a905350806001019050610c0b565b8192505050919050565b610cbc610f62565b610cc4610f76565b610ccc610f76565b610cd4610f76565b6000808794508693508351855101604051805910610cef5750595b9080825280601f01601f1916602001820160405250925060009150600090505b8451811015610dc0578481815181101515610d2657fe5b9060200101517f010000000000000000000000000000000000000000000000000000000000000090047f0100000000000000000000000000000000000000000000000000000000000000028383806001019450815181101515610d8557fe5b9060200101907effffffffffffffffffffffffffffffffffffffffffffffffffffffffffffff1916908160001a905350806001019050610d0f565b600090505b8351811015610e76578381815181101515610ddc57fe5b9060200101517f010000000000000000000000000000000000000000000000000000000000000090047f0100000000000000000000000000000000000000000000000000000000000000028383806001019450815181101515610e3b57fe5b9060200101907effffffffffffffffffffffffffffffffffffffffffffffffffffffffffffff1916908160001a905350806001019050610dc5565b829550505050505092915050565b815481835581811511610eb157600b0281600b028360005260206000209182019101610eb09190610f8a565b5b505050565b828054600181600116156101000203166002900490600052602060002090601f016020900481019282601f10610ef757805160ff1916838001178555610f25565b82800160010185558215610f25579182015b82811115610f24578251825591602001919060010190610f09565b5b509050610f32919061106b565b5090565b815481835581811511610f5d57818360005260206000209182019101610f5c919061106b565b5b505050565b602060405190810160405280600081525090565b602060405190810160405280600081525090565b61106891905b8082111561106457600080820160006101000a81549073ffffffffffffffffffffffffffffffffffffffff0219169055600182016000610fd09190611090565b600282016000610fe09190611090565b600382016000610ff09190611090565b6004820160006101000a81549060ff021916905560058201600090556006820160006101000a81549073ffffffffffffffffffffffffffffffffffffffff0219169055600782016000905560088201600090556009820160009055600a8201600061105b91906110d8565b50600b01610f90565b5090565b90565b61108d91905b80821115611089576000816000905550600101611071565b5090565b90565b50805460018160011615610100020316600290046000825580601f106110b657506110d5565b601f0160209004906000526020600020908101906110d4919061106b565b5b50565b50805460008255600302906000526020600020908101906110f991906110fc565b50565b61114f91905b8082111561114b57600080820160006101000a81549073ffffffffffffffffffffffffffffffffffffffff02191690556001820160009055600282016000905550600301611102565b5090565b905600a165627a7a72305820914d26be95bf11ef407264c8fd5e82e1087af246aa98e7b156729aa48d2b16fd0029",
  "source": "pragma solidity ^0.4.19;\n\ncontract bidfinex {\n    \n    struct bid\n    {\n        address bidder;\n        uint256 amount;\n        uint timestamp;\n    }\n\n    enum auctionStatus { Pending, Live, Dead }\n\n    struct auction {\n        address seller;\n        string title;\n        string recordId;\n        string description;\n        auctionStatus status;\n        uint deadline; //Deadline will be block number as contract will not have access to time and date.\n        address productAddress;\n        \n        //Price will be in wei a unit of gas.\n        uint256 startingPrice;\n        uint256 reservedPrice;\n        uint256 currentBid;\n\n        bid[] bids;\n    }\n\n    mapping(address => uint[]) public auctionRefunds;\n    mapping(address => uint[]) public auctionOwnerMap;\n    mapping(address => uint[]) public auctionBidderMap;\n    mapping(string => bool) private activeAuctionProductMap; //Maintain dictionary of product address + record id to check if they are already on auction\n\n    auction[] public auctions;\n    address owner;\n    \n    modifier onlySeller (uint auctionId) {\n        if (auctions[auctionId].seller != msg.sender)\n        revert();\n        _;\n    }\n    \n    modifier onlyOwner {\n        if (owner != msg.sender)\n        revert();\n        _;\n    }\n\n    modifier onlyActive (uint auctionId) {\n        auction memory temp = auctions[auctionId];\n        \n        if (temp.status != auctionStatus.Live)\n        revert();\n\n        if (block.number >= temp.deadline)\n        revert();\n        \n        _;\n    }\n\n    event throwError(string message);\n    event auctionCreated(uint id, string title, uint256 startingPrice, uint256 reservePrice);\n    event auctionStarted(uint id);\n    event auctionCancelled(uint id);\n    event bidPlaced(uint auctionId, address bidder, uint256 amount);\n    event auctionSold(uint auctionId, address winningBidder, uint256 amount);\n    event auctionUnsold(uint auctionId, uint256 topBid, uint256 reservePrice);\n\n    function bidfinex() public {\n        owner = msg.sender;\n    }\n\n    function createAuction( string _title,\n                            string _description,\n                            address _productAddress,\n                            string _recordId,\n                            uint _deadline,\n                            uint256 _startingPrice,\n                            uint256 _reservedPrice )\n                            public returns (uint auctionId) {\n\n        /*if(!personOwnsAsset(msg.sender, _productAddress, _recordId)) {\n            throwError(\"Seller does not own the product\");\n            revert();\n        }*/\n        \n        //else\n        if(block.number >= _deadline) {\n            throwError(\"Invalid deadline entered\");\n            revert();\n        }\n\n        else if (_startingPrice < 0 || _reservedPrice < 0 || _reservedPrice < _startingPrice) {\n            throwError(\"Invalid value entered for price section\");\n            revert();\n        }\n\n        else if(activeAuctionProductMap[strconcat(addressToString(_productAddress), _recordId)] == true) {\n            throwError(\"Item already in auction\");\n            revert();\n        }\n\n        auctionId = auctions.length++;\n        auction storage newAuction = auctions[auctionId];\n        \n        newAuction.seller = msg.sender;\n        newAuction.title = _title;\n        newAuction.recordId = _recordId;\n        newAuction.description = _description;\n        newAuction.status = auctionStatus.Pending;\n        newAuction.deadline = _deadline;\n        newAuction.productAddress = _productAddress;\n        newAuction.startingPrice = _startingPrice;\n        newAuction.reservedPrice = _reservedPrice;\n        newAuction.currentBid = _reservedPrice;\n\n        auctionOwnerMap[newAuction.seller].push(auctionId);\n        activeAuctionProductMap[strconcat(addressToString(_productAddress), _recordId)] = true;\n\n        auctionCreated(auctionId, newAuction.title, newAuction.startingPrice, newAuction.reservedPrice);\n\n        return auctionId;\n    }\n\n    function strconcat(string _first, string _second) internal pure returns (string) {\n        bytes memory temp1 = bytes(_first);\n        bytes memory temp2 = bytes(_second);\n        bytes memory ans = new bytes(temp1.length + temp2.length);\n\n        uint k = 0;\n        for (uint i = 0; i < temp1.length; ++i)\n            ans[k++] = temp1[i];\n        for (i = 0; i < temp2.length; ++i)\n            ans[k++] = temp2[i];\n        \n        return string(ans);\n    }\n\n    function addressToString(address _temp) internal pure returns (string) {\n        bytes memory temp = new bytes(20);\n        for (uint i = 0; i < 20; ++i)\n            temp[i] = byte(uint8(uint(_temp) / (2**(8*(19-i)))));\n        \n        return string(temp);\n    }\n}",
  "sourcePath": "/home/helios/Desktop/bidfinex/contracts/bidfinex.sol",
  "compiler": {
    "name": "solc",
    "version": "0.4.19+commit.c4cbbb05.Emscripten.clang"
  },
  "schemaVersion": "2.0.0",
  "updatedAt": "2018-03-28T12:10:07.239Z"
}