{
  "contractName": "bidfinex",
  "abi": [
    {
      "constant": true,
      "inputs": [
        {
          "name": "",
          "type": "address"
        },
        {
          "name": "",
          "type": "uint256"
        }
      ],
      "name": "auctionBidderMap",
      "outputs": [
        {
          "name": "",
          "type": "uint256"
        }
      ],
      "payable": false,
      "stateMutability": "view",
      "type": "function"
    },
    {
      "constant": true,
      "inputs": [
        {
          "name": "",
          "type": "uint256"
        }
      ],
      "name": "auctions",
      "outputs": [
        {
          "name": "seller",
          "type": "address"
        },
        {
          "name": "title",
          "type": "string"
        },
        {
          "name": "auctionId",
          "type": "uint256"
        },
        {
          "name": "description",
          "type": "string"
        },
        {
          "name": "status",
          "type": "uint8"
        },
        {
          "name": "deadline",
          "type": "uint256"
        },
        {
          "name": "startingPrice",
          "type": "uint256"
        },
        {
          "name": "reservedPrice",
          "type": "uint256"
        },
        {
          "name": "currentBid",
          "type": "uint256"
        }
      ],
      "payable": false,
      "stateMutability": "view",
      "type": "function"
    },
    {
      "constant": true,
      "inputs": [
        {
          "name": "",
          "type": "address"
        }
      ],
      "name": "auctionRefunds",
      "outputs": [
        {
          "name": "",
          "type": "uint256"
        }
      ],
      "payable": false,
      "stateMutability": "view",
      "type": "function"
    },
    {
      "constant": true,
      "inputs": [
        {
          "name": "",
          "type": "address"
        },
        {
          "name": "",
          "type": "uint256"
        }
      ],
      "name": "auctionOwnerMap",
      "outputs": [
        {
          "name": "",
          "type": "uint256"
        }
      ],
      "payable": false,
      "stateMutability": "view",
      "type": "function"
    },
    {
      "inputs": [],
      "payable": false,
      "stateMutability": "nonpayable",
      "type": "constructor"
    },
    {
      "anonymous": false,
      "inputs": [
        {
          "indexed": false,
          "name": "message",
          "type": "string"
        }
      ],
      "name": "throwError",
      "type": "event"
    },
    {
      "anonymous": false,
      "inputs": [
        {
          "indexed": false,
          "name": "id",
          "type": "uint256"
        },
        {
          "indexed": false,
          "name": "title",
          "type": "string"
        },
        {
          "indexed": false,
          "name": "startingPrice",
          "type": "uint256"
        },
        {
          "indexed": false,
          "name": "reservePrice",
          "type": "uint256"
        }
      ],
      "name": "auctionCreated",
      "type": "event"
    },
    {
      "anonymous": false,
      "inputs": [
        {
          "indexed": false,
          "name": "id",
          "type": "uint256"
        }
      ],
      "name": "auctionStarted",
      "type": "event"
    },
    {
      "anonymous": false,
      "inputs": [
        {
          "indexed": false,
          "name": "id",
          "type": "uint256"
        }
      ],
      "name": "auctionCancelled",
      "type": "event"
    },
    {
      "anonymous": false,
      "inputs": [
        {
          "indexed": false,
          "name": "auctionId",
          "type": "uint256"
        },
        {
          "indexed": false,
          "name": "bidder",
          "type": "address"
        },
        {
          "indexed": false,
          "name": "amount",
          "type": "uint256"
        }
      ],
      "name": "bidPlaced",
      "type": "event"
    },
    {
      "anonymous": false,
      "inputs": [
        {
          "indexed": false,
          "name": "auctionId",
          "type": "uint256"
        },
        {
          "indexed": false,
          "name": "winningBidder",
          "type": "address"
        },
        {
          "indexed": false,
          "name": "amount",
          "type": "uint256"
        }
      ],
      "name": "auctionSold",
      "type": "event"
    },
    {
      "anonymous": false,
      "inputs": [
        {
          "indexed": false,
          "name": "auctionId",
          "type": "uint256"
        },
        {
          "indexed": false,
          "name": "topBid",
          "type": "uint256"
        },
        {
          "indexed": false,
          "name": "reservePrice",
          "type": "uint256"
        }
      ],
      "name": "auctionUnsold",
      "type": "event"
    },
    {
      "constant": false,
      "inputs": [
        {
          "name": "_title",
          "type": "string"
        },
        {
          "name": "_description",
          "type": "string"
        },
        {
          "name": "_deadline",
          "type": "uint256"
        },
        {
          "name": "_startingPrice",
          "type": "uint256"
        },
        {
          "name": "_reservedPrice",
          "type": "uint256"
        }
      ],
      "name": "createAuction",
      "outputs": [
        {
          "name": "id",
          "type": "uint256"
        }
      ],
      "payable": false,
      "stateMutability": "nonpayable",
      "type": "function"
    },
    {
      "constant": true,
      "inputs": [
        {
          "name": "idx",
          "type": "uint256"
        }
      ],
      "name": "getAuction",
      "outputs": [
        {
          "name": "",
          "type": "address"
        },
        {
          "name": "",
          "type": "uint256"
        },
        {
          "name": "",
          "type": "string"
        },
        {
          "name": "",
          "type": "string"
        },
        {
          "name": "",
          "type": "uint256"
        },
        {
          "name": "",
          "type": "uint256"
        },
        {
          "name": "",
          "type": "uint256"
        },
        {
          "name": "",
          "type": "uint256"
        },
        {
          "name": "",
          "type": "uint256"
        }
      ],
      "payable": false,
      "stateMutability": "view",
      "type": "function"
    },
    {
      "constant": true,
      "inputs": [],
      "name": "getAuctionCount",
      "outputs": [
        {
          "name": "",
          "type": "uint256"
        }
      ],
      "payable": false,
      "stateMutability": "view",
      "type": "function"
    },
    {
      "constant": true,
      "inputs": [
        {
          "name": "idx",
          "type": "uint256"
        }
      ],
      "name": "getAuctionStatus",
      "outputs": [
        {
          "name": "",
          "type": "uint256"
        }
      ],
      "payable": false,
      "stateMutability": "view",
      "type": "function"
    },
    {
      "constant": true,
      "inputs": [
        {
          "name": "user",
          "type": "address"
        }
      ],
      "name": "getAuctionCountForUser",
      "outputs": [
        {
          "name": "",
          "type": "uint256"
        }
      ],
      "payable": false,
      "stateMutability": "view",
      "type": "function"
    },
    {
      "constant": true,
      "inputs": [
        {
          "name": "user",
          "type": "address"
        },
        {
          "name": "idx",
          "type": "uint256"
        }
      ],
      "name": "getAuctionIdForUserIdx",
      "outputs": [
        {
          "name": "",
          "type": "uint256"
        }
      ],
      "payable": false,
      "stateMutability": "view",
      "type": "function"
    },
    {
      "constant": false,
      "inputs": [
        {
          "name": "auctionId",
          "type": "uint256"
        }
      ],
      "name": "cancelAuction",
      "outputs": [
        {
          "name": "",
          "type": "bool"
        }
      ],
      "payable": false,
      "stateMutability": "nonpayable",
      "type": "function"
    },
    {
      "constant": true,
      "inputs": [
        {
          "name": "auctionId",
          "type": "uint256"
        }
      ],
      "name": "getBidCountForAuction",
      "outputs": [
        {
          "name": "",
          "type": "uint256"
        }
      ],
      "payable": false,
      "stateMutability": "view",
      "type": "function"
    },
    {
      "constant": true,
      "inputs": [
        {
          "name": "auctionId",
          "type": "uint256"
        },
        {
          "name": "idx",
          "type": "uint256"
        }
      ],
      "name": "getBidForAuctionByIdx",
      "outputs": [
        {
          "name": "bidder",
          "type": "address"
        },
        {
          "name": "amount",
          "type": "uint256"
        },
        {
          "name": "timestamp",
          "type": "uint256"
        }
      ],
      "payable": false,
      "stateMutability": "view",
      "type": "function"
    },
    {
      "constant": false,
      "inputs": [
        {
          "name": "auctionId",
          "type": "uint256"
        }
      ],
      "name": "placeBid",
      "outputs": [
        {
          "name": "success",
          "type": "bool"
        }
      ],
      "payable": true,
      "stateMutability": "payable",
      "type": "function"
    },
    {
      "constant": true,
      "inputs": [],
      "name": "getRefundValue",
      "outputs": [
        {
          "name": "",
          "type": "uint256"
        }
      ],
      "payable": false,
      "stateMutability": "view",
      "type": "function"
    },
    {
      "constant": false,
      "inputs": [],
      "name": "withdrawRefund",
      "outputs": [],
      "payable": false,
      "stateMutability": "nonpayable",
      "type": "function"
    }
  ],
  "bytecode": "0x6060604052341561000f57600080fd5b33600460006101000a81548173ffffffffffffffffffffffffffffffffffffffff021916908373ffffffffffffffffffffffffffffffffffffffff160217905550612c2c8061005f6000396000f3006060604052600436106100e6576000357c0100000000000000000000000000000000000000000000000000000000900463ffffffff1680630ed0b8ca146100eb578063110f8874146101385780631313c7391461014d5780633efe3146146101c75780634bc32ea21461021d578063571a26a0146102545780635800eafa1461040157806359e54095146104d05780635ae374be146104f9578063676f58831461054f5780637765c52c1461059c57806378bd7935146105d357806396b5a755146107385780639979ef4514610773578063c44e6640146107a3578063c838ef2c146107cc575b600080fd5b34156100f657600080fd5b610122600480803573ffffffffffffffffffffffffffffffffffffffff16906020019091905050610822565b6040518082815260200191505060405180910390f35b341561014357600080fd5b61014b61086e565b005b341561015857600080fd5b610177600480803590602001909190803590602001909190505061096c565b604051808473ffffffffffffffffffffffffffffffffffffffff1673ffffffffffffffffffffffffffffffffffffffff168152602001838152602001828152602001935050505060405180910390f35b34156101d257600080fd5b610207600480803573ffffffffffffffffffffffffffffffffffffffff16906020019091908035906020019091905050610cc3565b6040518082815260200191505060405180910390f35b341561022857600080fd5b61023e6004808035906020019091905050610cf4565b6040518082815260200191505060405180910390f35b341561025f57600080fd5b6102756004808035906020019091905050610ffc565b604051808a73ffffffffffffffffffffffffffffffffffffffff1673ffffffffffffffffffffffffffffffffffffffff16815260200180602001898152602001806020018860018111156102c557fe5b60ff16815260200187815260200186815260200185815260200184815260200183810383528b8181546001816001161561010002031660029004815260200191508054600181600116156101000203166002900480156103665780601f1061033b57610100808354040283529160200191610366565b820191906000526020600020905b81548152906001019060200180831161034957829003601f168201915b50508381038252898181546001816001161561010002031660029004815260200191508054600181600116156101000203166002900480156103e95780601f106103be576101008083540402835291602001916103e9565b820191906000526020600020905b8154815290600101906020018083116103cc57829003601f168201915b50509b50505050505050505050505060405180910390f35b341561040c57600080fd5b6104ba600480803590602001908201803590602001908080601f0160208091040260200160405190810160405280939291908181526020018383808284378201915050505050509190803590602001908201803590602001908080601f01602080910402602001604051908101604052809392919081815260200183838082843782019150505050505091908035906020019091908035906020019091908035906020019091905050611084565b6040518082815260200191505060405180910390f35b34156104db57600080fd5b6104e361141e565b6040518082815260200191505060405180910390f35b341561050457600080fd5b610539600480803573ffffffffffffffffffffffffffffffffffffffff16906020019091908035906020019091905050611464565b6040518082815260200191505060405180910390f35b341561055a57600080fd5b610586600480803573ffffffffffffffffffffffffffffffffffffffff169060200190919050506114c6565b6040518082815260200191505060405180910390f35b34156105a757600080fd5b6105bd60048080359060200190919050506114de565b6040518082815260200191505060405180910390f35b34156105de57600080fd5b6105f460048080359060200190919050506117ef565b604051808a73ffffffffffffffffffffffffffffffffffffffff1673ffffffffffffffffffffffffffffffffffffffff168152602001898152602001806020018060200188815260200187815260200186815260200185815260200184815260200183810383528a818151815260200191508051906020019080838360005b8381101561068e578082015181840152602081019050610673565b50505050905090810190601f1680156106bb5780820380516001836020036101000a031916815260200191505b50838103825289818151815260200191508051906020019080838360005b838110156106f45780820151818401526020810190506106d9565b50505050905090810190601f1680156107215780820380516001836020036101000a031916815260200191505b509b50505050505050505050505060405180910390f35b341561074357600080fd5b6107596004808035906020019091905050611b7f565b604051808215151515815260200191505060405180910390f35b6107896004808035906020019091905050612004565b604051808215151515815260200191505060405180910390f35b34156107ae57600080fd5b6107b6612850565b6040518082815260200191505060405180910390f35b34156107d757600080fd5b61080c600480803573ffffffffffffffffffffffffffffffffffffffff1690602001909190803590602001909190505061285d565b6040518082815260200191505060405180910390f35b6000600160008373ffffffffffffffffffffffffffffffffffffffff1673ffffffffffffffffffffffffffffffffffffffff168152602001908152602001600020805490509050919050565b60008060003373ffffffffffffffffffffffffffffffffffffffff1673ffffffffffffffffffffffffffffffffffffffff1681526020019081526020016000205490506000811115156108c057600080fd5b803073ffffffffffffffffffffffffffffffffffffffff16311115156108e557600080fd5b3373ffffffffffffffffffffffffffffffffffffffff166108fc829081150290604051600060405180830381858888f19350505050151561092557600080fd5b60008060003373ffffffffffffffffffffffffffffffffffffffff1673ffffffffffffffffffffffffffffffffffffffff1681526020019081526020016000208190555050565b600080600061097961288e565b610981612915565b60038781548110151561099057fe5b90600052602060002090600a020161014060405190810160405290816000820160009054906101000a900473ffffffffffffffffffffffffffffffffffffffff1673ffffffffffffffffffffffffffffffffffffffff1673ffffffffffffffffffffffffffffffffffffffff168152602001600182018054600181600116156101000203166002900480601f016020809104026020016040519081016040528092919081815260200182805460018160011615610100020316600290048015610a9a5780601f10610a6f57610100808354040283529160200191610a9a565b820191906000526020600020905b815481529060010190602001808311610a7d57829003601f168201915b5050505050815260200160028201548152602001600382018054600181600116156101000203166002900480601f016020809104026020016040519081016040528092919081815260200182805460018160011615610100020316600290048015610b465780601f10610b1b57610100808354040283529160200191610b46565b820191906000526020600020905b815481529060010190602001808311610b2957829003601f168201915b505050505081526020016004820160009054906101000a900460ff166001811115610b6d57fe5b6001811115610b7857fe5b81526020016005820154815260200160068201548152602001600782015481526020016008820154815260200160098201805480602002602001604051908101604052809291908181526020016000905b82821015610c665783829060005260206000209060030201606060405190810160405290816000820160009054906101000a900473ffffffffffffffffffffffffffffffffffffffff1673ffffffffffffffffffffffffffffffffffffffff1673ffffffffffffffffffffffffffffffffffffffff1681526020016001820154815260200160028201548152505081526020019060010190610bc9565b5050505081525050915060018261012001515103861115610c8657600080fd5b81610120015186815181101515610c9957fe5b90602001906020020151905080600001518160200151826040015194509450945050509250925092565b600260205281600052604060002081815481101515610cde57fe5b9060005260206000209001600091509150505481565b6000610cfe61288e565b600383815481101515610d0d57fe5b90600052602060002090600a020161014060405190810160405290816000820160009054906101000a900473ffffffffffffffffffffffffffffffffffffffff1673ffffffffffffffffffffffffffffffffffffffff1673ffffffffffffffffffffffffffffffffffffffff168152602001600182018054600181600116156101000203166002900480601f016020809104026020016040519081016040528092919081815260200182805460018160011615610100020316600290048015610e175780601f10610dec57610100808354040283529160200191610e17565b820191906000526020600020905b815481529060010190602001808311610dfa57829003601f168201915b5050505050815260200160028201548152602001600382018054600181600116156101000203166002900480601f016020809104026020016040519081016040528092919081815260200182805460018160011615610100020316600290048015610ec35780601f10610e9857610100808354040283529160200191610ec3565b820191906000526020600020905b815481529060010190602001808311610ea657829003601f168201915b505050505081526020016004820160009054906101000a900460ff166001811115610eea57fe5b6001811115610ef557fe5b81526020016005820154815260200160068201548152602001600782015481526020016008820154815260200160098201805480602002602001604051908101604052809291908181526020016000905b82821015610fe35783829060005260206000209060030201606060405190810160405290816000820160009054906101000a900473ffffffffffffffffffffffffffffffffffffffff1673ffffffffffffffffffffffffffffffffffffffff1673ffffffffffffffffffffffffffffffffffffffff1681526020016001820154815260200160028201548152505081526020019060010190610f46565b5050505081525050905080610120015151915050919050565b60038181548110151561100b57fe5b90600052602060002090600a02016000915090508060000160009054906101000a900473ffffffffffffffffffffffffffffffffffffffff1690806001019080600201549080600301908060040160009054906101000a900460ff16908060050154908060060154908060070154908060080154905089565b60008084431015156110fd577fe93b6b241154b74690ce495fa4b632a330efb4fbe4ba969ca89eeefce8f4719f6040518080602001828103825260188152602001807f496e76616c696420646561646c696e6520656e7465726564000000000000000081525060200191505060405180910390a1600080fd5b600084108061110c5750600083105b8061111657508383105b156111ae577fe93b6b241154b74690ce495fa4b632a330efb4fbe4ba969ca89eeefce8f4719f6040518080602001828103825260278152602001807f496e76616c69642076616c756520656e746572656420666f722070726963652081526020017f73656374696f6e0000000000000000000000000000000000000000000000000081525060400191505060405180910390a1600080fd5b600380548091906001016111c2919061294d565b91506003828154811015156111d357fe5b90600052602060002090600a02019050338160000160006101000a81548173ffffffffffffffffffffffffffffffffffffffff021916908373ffffffffffffffffffffffffffffffffffffffff1602179055508681600101908051906020019061123e92919061297f565b508181600201819055508581600301908051906020019061126092919061297f565b5060008160040160006101000a81548160ff0219169083600181111561128257fe5b0217905550848160050181905550838160060181905550828160070181905550828160080181905550600160008260000160009054906101000a900473ffffffffffffffffffffffffffffffffffffffff1673ffffffffffffffffffffffffffffffffffffffff1673ffffffffffffffffffffffffffffffffffffffff168152602001908152602001600020805480600101828161132091906129ff565b9160005260206000209001600084909190915055507f3913e02939edbf80317fb8918381046a1077ae115a5a3a3e1d8551874d53b3c182826001018360060154846007015460405180858152602001806020018481526020018381526020018281038252858181546001816001161561010002031660029004815260200191508054600181600116156101000203166002900480156114005780601f106113d557610100808354040283529160200191611400565b820191906000526020600020905b8154815290600101906020018083116113e357829003601f168201915b50509550505050505060405180910390a18191505095945050505050565b60008060003373ffffffffffffffffffffffffffffffffffffffff1673ffffffffffffffffffffffffffffffffffffffff16815260200190815260200160002054905090565b6000600160008473ffffffffffffffffffffffffffffffffffffffff1673ffffffffffffffffffffffffffffffffffffffff168152602001908152602001600020828154811015156114b257fe5b906000526020600020900154905092915050565b60006020528060005260406000206000915090505481565b60006114e861288e565b6003838154811015156114f757fe5b90600052602060002090600a020161014060405190810160405290816000820160009054906101000a900473ffffffffffffffffffffffffffffffffffffffff1673ffffffffffffffffffffffffffffffffffffffff1673ffffffffffffffffffffffffffffffffffffffff168152602001600182018054600181600116156101000203166002900480601f0160208091040260200160405190810160405280929190818152602001828054600181600116156101000203166002900480156116015780601f106115d657610100808354040283529160200191611601565b820191906000526020600020905b8154815290600101906020018083116115e457829003601f168201915b5050505050815260200160028201548152602001600382018054600181600116156101000203166002900480601f0160208091040260200160405190810160405280929190818152602001828054600181600116156101000203166002900480156116ad5780601f10611682576101008083540402835291602001916116ad565b820191906000526020600020905b81548152906001019060200180831161169057829003601f168201915b505050505081526020016004820160009054906101000a900460ff1660018111156116d457fe5b60018111156116df57fe5b81526020016005820154815260200160068201548152602001600782015481526020016008820154815260200160098201805480602002602001604051908101604052809291908181526020016000905b828210156117cd5783829060005260206000209060030201606060405190810160405290816000820160009054906101000a900473ffffffffffffffffffffffffffffffffffffffff1673ffffffffffffffffffffffffffffffffffffffff1673ffffffffffffffffffffffffffffffffffffffff1681526020016001820154815260200160028201548152505081526020019060010190611730565b50505050815250509050806080015160018111156117e757fe5b915050919050565b6000806117fa612a2b565b611802612a2b565b600080600080600061181261288e565b60038b81548110151561182157fe5b90600052602060002090600a020161014060405190810160405290816000820160009054906101000a900473ffffffffffffffffffffffffffffffffffffffff1673ffffffffffffffffffffffffffffffffffffffff1673ffffffffffffffffffffffffffffffffffffffff168152602001600182018054600181600116156101000203166002900480601f01602080910402602001604051908101604052809291908181526020018280546001816001161561010002031660029004801561192b5780601f106119005761010080835404028352916020019161192b565b820191906000526020600020905b81548152906001019060200180831161190e57829003601f168201915b5050505050815260200160028201548152602001600382018054600181600116156101000203166002900480601f0160208091040260200160405190810160405280929190818152602001828054600181600116156101000203166002900480156119d75780601f106119ac576101008083540402835291602001916119d7565b820191906000526020600020905b8154815290600101906020018083116119ba57829003601f168201915b505050505081526020016004820160009054906101000a900460ff1660018111156119fe57fe5b6001811115611a0957fe5b81526020016005820154815260200160068201548152602001600782015481526020016008820154815260200160098201805480602002602001604051908101604052809291908181526020016000905b82821015611af75783829060005260206000209060030201606060405190810160405290816000820160009054906101000a900473ffffffffffffffffffffffffffffffffffffffff1673ffffffffffffffffffffffffffffffffffffffff1673ffffffffffffffffffffffffffffffffffffffff1681526020016001820154815260200160028201548152505081526020019060010190611a5a565b505050508152505090506000816000015173ffffffffffffffffffffffffffffffffffffffff161415611b2957600080fd5b80600001518160400151826020015183606001518460a001518560c001518660e0015187610100015188610120015151869650859550995099509950995099509950995099509950509193959799909294969850565b6000611b8961288e565b6000611b93612915565b843373ffffffffffffffffffffffffffffffffffffffff16600382815481101515611bba57fe5b90600052602060002090600a020160000160009054906101000a900473ffffffffffffffffffffffffffffffffffffffff1673ffffffffffffffffffffffffffffffffffffffff16141515611c0e57600080fd5b600386815481101515611c1d57fe5b90600052602060002090600a020161014060405190810160405290816000820160009054906101000a900473ffffffffffffffffffffffffffffffffffffffff1673ffffffffffffffffffffffffffffffffffffffff1673ffffffffffffffffffffffffffffffffffffffff168152602001600182018054600181600116156101000203166002900480601f016020809104026020016040519081016040528092919081815260200182805460018160011615610100020316600290048015611d275780601f10611cfc57610100808354040283529160200191611d27565b820191906000526020600020905b815481529060010190602001808311611d0a57829003601f168201915b5050505050815260200160028201548152602001600382018054600181600116156101000203166002900480601f016020809104026020016040519081016040528092919081815260200182805460018160011615610100020316600290048015611dd35780601f10611da857610100808354040283529160200191611dd3565b820191906000526020600020905b815481529060010190602001808311611db657829003601f168201915b505050505081526020016004820160009054906101000a900460ff166001811115611dfa57fe5b6001811115611e0557fe5b81526020016005820154815260200160068201548152602001600782015481526020016008820154815260200160098201805480602002602001604051908101604052809291908181526020016000905b82821015611ef35783829060005260206000209060030201606060405190810160405290816000820160009054906101000a900473ffffffffffffffffffffffffffffffffffffffff1673ffffffffffffffffffffffffffffffffffffffff1673ffffffffffffffffffffffffffffffffffffffff1681526020016001820154815260200160028201548152505081526020019060010190611e56565b505050508152505093508360e00151846101000151101515611f1457600080fd5b8361012001515192506000831115611f9d5783610120015160018403815181101515611f3c57fe5b9060200190602002015191508160200151600080846000015173ffffffffffffffffffffffffffffffffffffffff1673ffffffffffffffffffffffffffffffffffffffff168152602001908152602001600020600082825401925050819055505b600184608001906001811115611faf57fe5b90816001811115611fbc57fe5b815250507fb866bb4b98ba3ad2786d5bd9dcd02c04a144c9c26865420cac31d6550061ef42866040518082815260200191505060405180910390a16001945050505050919050565b60008061200f61288e565b6000612019612915565b612021612915565b8661202a61288e565b60038281548110151561203957fe5b90600052602060002090600a020161014060405190810160405290816000820160009054906101000a900473ffffffffffffffffffffffffffffffffffffffff1673ffffffffffffffffffffffffffffffffffffffff1673ffffffffffffffffffffffffffffffffffffffff168152602001600182018054600181600116156101000203166002900480601f0160208091040260200160405190810160405280929190818152602001828054600181600116156101000203166002900480156121435780601f1061211857610100808354040283529160200191612143565b820191906000526020600020905b81548152906001019060200180831161212657829003601f168201915b5050505050815260200160028201548152602001600382018054600181600116156101000203166002900480601f0160208091040260200160405190810160405280929190818152602001828054600181600116156101000203166002900480156121ef5780601f106121c4576101008083540402835291602001916121ef565b820191906000526020600020905b8154815290600101906020018083116121d257829003601f168201915b505050505081526020016004820160009054906101000a900460ff16600181111561221657fe5b600181111561222157fe5b81526020016005820154815260200160068201548152602001600782015481526020016008820154815260200160098201805480602002602001604051908101604052809291908181526020016000905b8282101561230f5783829060005260206000209060030201606060405190810160405290816000820160009054906101000a900473ffffffffffffffffffffffffffffffffffffffff1673ffffffffffffffffffffffffffffffffffffffff1673ffffffffffffffffffffffffffffffffffffffff1681526020016001820154815260200160028201548152505081526020019060010190612272565b505050508152505090506000600181111561232657fe5b8160800151600181111561233657fe5b14151561234257600080fd5b8060a001514310151561235457600080fd5b34965060038981548110151561236657fe5b90600052602060002090600a020161014060405190810160405290816000820160009054906101000a900473ffffffffffffffffffffffffffffffffffffffff1673ffffffffffffffffffffffffffffffffffffffff1673ffffffffffffffffffffffffffffffffffffffff168152602001600182018054600181600116156101000203166002900480601f0160208091040260200160405190810160405280929190818152602001828054600181600116156101000203166002900480156124705780601f1061244557610100808354040283529160200191612470565b820191906000526020600020905b81548152906001019060200180831161245357829003601f168201915b5050505050815260200160028201548152602001600382018054600181600116156101000203166002900480601f01602080910402602001604051908101604052809291908181526020018280546001816001161561010002031660029004801561251c5780601f106124f15761010080835404028352916020019161251c565b820191906000526020600020905b8154815290600101906020018083116124ff57829003601f168201915b505050505081526020016004820160009054906101000a900460ff16600181111561254357fe5b600181111561254e57fe5b81526020016005820154815260200160068201548152602001600782015481526020016008820154815260200160098201805480602002602001604051908101604052809291908181526020016000905b8282101561263c5783829060005260206000209060030201606060405190810160405290816000820160009054906101000a900473ffffffffffffffffffffffffffffffffffffffff1673ffffffffffffffffffffffffffffffffffffffff1673ffffffffffffffffffffffffffffffffffffffff168152602001600182015481526020016002820154815250508152602001906001019061259f565b505050508152505095508686610100015110151561265957600080fd5b6001866101200151510194508561012001518581518110151561267857fe5b90602001906020020151935033846000019073ffffffffffffffffffffffffffffffffffffffff16908173ffffffffffffffffffffffffffffffffffffffff16815250508684602001818152505042846040018181525050868661010001818152505060016000856000015173ffffffffffffffffffffffffffffffffffffffff1673ffffffffffffffffffffffffffffffffffffffff168152602001908152602001600020805480600101828161273091906129ff565b916000526020600020900160008b9091909150555060008511156127c5578561012001516001860381518110151561276457fe5b9060200190602002015192508260200151600080856000015173ffffffffffffffffffffffffffffffffffffffff1673ffffffffffffffffffffffffffffffffffffffff168152602001908152602001600020600082825401925050819055505b7fb709f01451ed0783e7600e0c31d1df63da03b66b3caf7cddde880f0774332ba68985600001518660200151604051808481526020018373ffffffffffffffffffffffffffffffffffffffff1673ffffffffffffffffffffffffffffffffffffffff168152602001828152602001935050505060405180910390a16001975050505050505050919050565b6000600380549050905090565b60016020528160005260406000208181548110151561287857fe5b9060005260206000209001600091509150505481565b61014060405190810160405280600073ffffffffffffffffffffffffffffffffffffffff1681526020016128c0612a3f565b8152602001600081526020016128d4612a3f565b8152602001600060018111156128e657fe5b81526020016000815260200160008152602001600081526020016000815260200161290f612a53565b81525090565b606060405190810160405280600073ffffffffffffffffffffffffffffffffffffffff16815260200160008152602001600081525090565b81548183558181151161297a57600a0281600a0283600052602060002091820191016129799190612a67565b5b505050565b828054600181600116156101000203166002900490600052602060002090601f016020900481019282601f106129c057805160ff19168380011785556129ee565b828001600101855582156129ee579182015b828111156129ed5782518255916020019190600101906129d2565b5b5090506129fb9190612b19565b5090565b815481835581811511612a2657818360005260206000209182019101612a259190612b19565b5b505050565b602060405190810160405280600081525090565b602060405190810160405280600081525090565b602060405190810160405280600081525090565b612b1691905b80821115612b1257600080820160006101000a81549073ffffffffffffffffffffffffffffffffffffffff0219169055600182016000612aad9190612b3e565b6002820160009055600382016000612ac59190612b3e565b6004820160006101000a81549060ff02191690556005820160009055600682016000905560078201600090556008820160009055600982016000612b099190612b86565b50600a01612a6d565b5090565b90565b612b3b91905b80821115612b37576000816000905550600101612b1f565b5090565b90565b50805460018160011615610100020316600290046000825580601f10612b645750612b83565b601f016020900490600052602060002090810190612b829190612b19565b5b50565b5080546000825560030290600052602060002090810190612ba79190612baa565b50565b612bfd91905b80821115612bf957600080820160006101000a81549073ffffffffffffffffffffffffffffffffffffffff02191690556001820160009055600282016000905550600301612bb0565b5090565b905600a165627a7a723058200b5f3852f1eaf05a905322c3373bd0e80d40936149d09d94774133ec542813230029",
  "source": "pragma solidity ^0.4.19;\n\ncontract bidfinex {\n    \n    struct bid\n    {\n        address bidder;\n        uint256 amount;\n        uint timestamp;\n    }\n\n    enum auctionStatus { Live, Dead }\n\n    struct auction {\n        address seller;\n        string title;\n        uint auctionId;\n        string description;\n        auctionStatus status;\n        uint deadline; //Deadline will be block number as contract will not have access to time and date.\n        \n        //Price will be in wei a unit of gas.\n        uint256 startingPrice;\n        uint256 reservedPrice;\n        uint256 currentBid;\n\n        bid[] bids;\n    }\n\n    mapping(address => uint256) public auctionRefunds;\n    mapping(address => uint[]) public auctionOwnerMap;\n    mapping(address => uint[]) public auctionBidderMap;\n    \n    auction[] public auctions;\n    address owner;\n    \n    modifier onlySeller (uint auctionId) {\n        if (auctions[auctionId].seller != msg.sender)\n        revert();\n        _;\n    }\n    \n    modifier onlyOwner {\n        if (owner != msg.sender)\n        revert();\n        _;\n    }\n\n    modifier onlyActive (uint auctionId) {\n        auction memory temp = auctions[auctionId];\n        \n        if (temp.status != auctionStatus.Live)\n        revert();\n\n        else if (block.number >= temp.deadline)\n        revert();\n        \n        _;\n    }\n\n    event throwError(string message);\n    event auctionCreated(uint id, string title, uint256 startingPrice, uint256 reservePrice);\n    event auctionStarted(uint id);\n    event auctionCancelled(uint id);\n    event bidPlaced(uint auctionId, address bidder, uint256 amount);\n    event auctionSold(uint auctionId, address winningBidder, uint256 amount);\n    event auctionUnsold(uint auctionId, uint256 topBid, uint256 reservePrice);\n\n    function bidfinex() public {\n        owner = msg.sender;\n    }\n\n    function createAuction( string _title,\n                            string _description,\n                            uint _deadline,\n                            uint256 _startingPrice,\n                            uint256 _reservedPrice )\n                            public returns (uint id) {\n\n        //else\n        if(block.number >= _deadline) {\n            throwError(\"Invalid deadline entered\");\n            revert();\n        }\n\n        else if (_startingPrice < 0 || _reservedPrice < 0 || _reservedPrice < _startingPrice) {\n            throwError(\"Invalid value entered for price section\");\n            revert();\n        }\n\n        id = auctions.length++;\n        auction storage newAuction = auctions[id];\n        \n        newAuction.seller = msg.sender;\n        newAuction.title = _title;\n        newAuction.auctionId = id;\n        newAuction.description = _description;\n        newAuction.status = auctionStatus.Live;\n        newAuction.deadline = _deadline;\n        newAuction.startingPrice = _startingPrice;\n        newAuction.reservedPrice = _reservedPrice;\n        newAuction.currentBid = _reservedPrice;\n\n        auctionOwnerMap[newAuction.seller].push(id);\n\n        auctionCreated(id, newAuction.title, newAuction.startingPrice, newAuction.reservedPrice);\n\n        return id;\n    }\n    \n    function getAuction(uint idx) public view returns (address, uint, string, string, uint, uint256, uint256, uint256, uint) {\n        auction memory temp = auctions[idx];\n        if (temp.seller == 0) \n            revert();\n\n        return (temp.seller,\n                temp.auctionId,\n                temp.title,\n                temp.description,\n                temp.deadline,\n                temp.startingPrice,\n                temp.reservedPrice,\n                temp.currentBid,\n                temp.bids.length);\n    }\n\n    function getAuctionCount() public view returns (uint) {\n        return auctions.length;\n    }\n\n    function getAuctionStatus(uint idx) public view returns (uint) {\n        auction memory temp = auctions[idx];\n        return uint(temp.status);\n    }\n\n    function getAuctionCountForUser(address user) public view returns (uint) {\n        return auctionOwnerMap[user].length;\n    }\n\n    function getAuctionIdForUserIdx(address user, uint idx) public view returns (uint) {\n        return auctionOwnerMap[user][idx];\n    }\n\n    function cancelAuction(uint auctionId) onlySeller(auctionId) public returns (bool) {\n        auction memory temp = auctions[auctionId];\n        \n        if (temp.currentBid >= temp.reservedPrice) revert();   // Auction cannot be cancelled if there is a bid already\n\n        // Refund to the bidder\n        uint bidsLength = temp.bids.length;\n        if (bidsLength > 0) {\n            bid memory topBid = temp.bids[bidsLength - 1];\n            auctionRefunds[topBid.bidder] += topBid.amount;\n        }\n        temp.status = auctionStatus.Dead;\n                \n        auctionCancelled(auctionId);\n        return true;\n    }\n    \n    function getBidCountForAuction(uint auctionId) public view returns (uint) {\n        auction memory temp = auctions[auctionId];\n        return temp.bids.length;\n    }\n\n    function getBidForAuctionByIdx(uint auctionId, uint idx) public view returns (address bidder, uint256 amount, uint timestamp) {\n        auction memory temp = auctions[auctionId];\n        if(idx > temp.bids.length - 1)\n            revert();\n\n        bid memory tempBid = temp.bids[idx];\n        return (tempBid.bidder, tempBid.amount, tempBid.timestamp);\n    }\n    \n    function placeBid(uint auctionId) public payable onlyActive(auctionId) returns (bool success) {\n        uint256 amount = msg.value;\n        auction memory temp = auctions[auctionId];\n\n        if (temp.currentBid >= amount)\n            revert();\n\n        uint bidIdx = temp.bids.length + 1;\n        bid memory tempBid = temp.bids[bidIdx];\n        tempBid.bidder = msg.sender;\n        tempBid.amount = amount;\n        tempBid.timestamp = block.timestamp;\n        temp.currentBid = amount;\n\n        auctionOwnerMap[tempBid.bidder].push(auctionId);\n\n        // Log refunds for the previous bidder\n        if (bidIdx > 0) {\n            bid memory previousBid = temp.bids[bidIdx - 1];\n            auctionRefunds[previousBid.bidder] += previousBid.amount;\n        }\n\n        bidPlaced(auctionId, tempBid.bidder, tempBid.amount);\n        return true;\n    }\n\n    function getRefundValue() public view returns (uint) {\n        return auctionRefunds[msg.sender];\n    }\n\n    function withdrawRefund() public {\n        uint256 refund = auctionRefunds[msg.sender];\n\n        if (refund <= 0)\n            revert();\n        else if(address(this).balance <= refund)\n            revert();\n\n        msg.sender.transfer(refund);\n        auctionRefunds[msg.sender] = 0;\n    }\n    /*function personOwnsAsset(address _person, address _product, uint _recordId) private view returns (bool success) {\n        product productContract = product(_product);\n        return productContract.getOwnerAddress(_recordId) == _person;\n    }\n    \n    function strconcat(string _first, uint _second) internal pure returns (string) {\n        bytes memory temp1 = bytes(_first);\n        bytes memory temp2 = bytes(uintToString(_second));\n        bytes memory ans = new bytes(temp1.length + temp2.length);\n\n        uint k = 0;\n        for (uint i = 0; i < temp1.length; ++i)\n            ans[k++] = temp1[i];\n        for (i = 0; i < temp2.length; ++i)\n            ans[k++] = temp2[i];\n        \n        return string(ans);\n    }\n\n    function addressToString(address _temp) internal pure returns (string) {\n        bytes memory temp = new bytes(20);\n        for (uint i = 0; i < 20; ++i)\n            temp[i] = byte(uint8(uint(_temp) / (2**(8*(19-i)))));\n        \n        return string(temp);\n    }\n\n    function uintToString(uint v) internal pure returns (string) {\n        uint maxlength = 100;\n        uint temp = v;\n        bytes memory reversed = new bytes(maxlength);\n        uint i = 0;\n        while (temp != 0) {\n            uint remainder = temp % 10;\n            temp = temp / 10;\n            reversed[i++] = byte(48 + remainder);\n        }\n        \n        bytes memory s = new bytes(i);\n        for (uint j = 0; j < i; j++) {\n            s[j] = reversed[i - 1 - j];\n        }\n        \n        return string(s);\n    }*/\n}",
  "sourcePath": "/home/helios/Desktop/bidfinex/contracts/bidfinex.sol",
  "compiler": {
    "name": "solc",
    "version": "0.4.19+commit.c4cbbb05.Emscripten.clang"
  },
  "schemaVersion": "2.0.0",
  "updatedAt": "2018-03-31T11:01:41.991Z"
}