{
  "contractName": "product",
  "abi": [
    {
      "constant": true,
      "inputs": [
        {
          "name": "_objectId",
          "type": "uint256"
        }
      ],
      "name": "getOwner",
      "outputs": [
        {
          "name": "_name",
          "type": "string"
        },
        {
          "name": "ownerAddress",
          "type": "address"
        }
      ],
      "payable": false,
      "stateMutability": "view",
      "type": "function"
    },
    {
      "constant": true,
      "inputs": [
        {
          "name": "_objectId",
          "type": "uint256"
        }
      ],
      "name": "getOwnerAddress",
      "outputs": [
        {
          "name": "ownerAddress",
          "type": "address"
        }
      ],
      "payable": false,
      "stateMutability": "view",
      "type": "function"
    },
    {
      "constant": false,
      "inputs": [
        {
          "name": "_objectId",
          "type": "uint256"
        },
        {
          "name": "_newOwnerName",
          "type": "string"
        },
        {
          "name": "_newOwnerAddress",
          "type": "address"
        }
      ],
      "name": "setOwner",
      "outputs": [
        {
          "name": "success",
          "type": "bool"
        }
      ],
      "payable": false,
      "stateMutability": "nonpayable",
      "type": "function"
    },
    {
      "constant": false,
      "inputs": [
        {
          "name": "_ownerAddress",
          "type": "address"
        },
        {
          "name": "_ownerName",
          "type": "string"
        },
        {
          "name": "_productName",
          "type": "string"
        }
      ],
      "name": "addProduct",
      "outputs": [
        {
          "name": "success",
          "type": "bool"
        }
      ],
      "payable": false,
      "stateMutability": "nonpayable",
      "type": "function"
    }
  ],
  "bytecode": "0x606060405260008055341561001357600080fd5b6108c3806100226000396000f300606060405260043610610062576000357c0100000000000000000000000000000000000000000000000000000000900463ffffffff1680633efbf0e91461006757806365e214ea14610104578063c41a360a146101db578063dd550958146102aa575b600080fd5b341561007257600080fd5b6100ea600480803590602001909190803590602001908201803590602001908080601f0160208091040260200160405190810160405280939291908181526020018383808284378201915050505050509190803573ffffffffffffffffffffffffffffffffffffffff1690602001909190505061030d565b604051808215151515815260200191505060405180910390f35b341561010f57600080fd5b6101c1600480803573ffffffffffffffffffffffffffffffffffffffff1690602001909190803590602001908201803590602001908080601f0160208091040260200160405190810160405280939291908181526020018383808284378201915050505050509190803590602001908201803590602001908080601f0160208091040260200160405190810160405280939291908181526020018383808284378201915050505050509190505061040c565b604051808215151515815260200191505060405180910390f35b34156101e657600080fd5b6101fc6004808035906020019091905050610643565b60405180806020018373ffffffffffffffffffffffffffffffffffffffff1673ffffffffffffffffffffffffffffffffffffffff168152602001828103825284818151815260200191508051906020019080838360005b8381101561026e578082015181840152602081019050610253565b50505050905090810190601f16801561029b5780820380516001836020036101000a031916815260200191505b50935050505060405180910390f35b34156102b557600080fd5b6102cb600480803590602001909190505061073f565b604051808273ffffffffffffffffffffffffffffffffffffffff1673ffffffffffffffffffffffffffffffffffffffff16815260200191505060405180910390f35b6000833373ffffffffffffffffffffffffffffffffffffffff166001600083815260200190815260200160002060030160009054906101000a900473ffffffffffffffffffffffffffffffffffffffff1673ffffffffffffffffffffffffffffffffffffffff1614151561038057600080fd5b836001600087815260200190815260200160002060000190805190602001906103aa92919061077f565b50826001600087815260200190815260200160002060030160006101000a81548173ffffffffffffffffffffffffffffffffffffffff021916908373ffffffffffffffffffffffffffffffffffffffff16021790555060019150509392505050565b60006104166107ff565b600160008054815260200190815260200160002060806040519081016040529081600082018054600181600116156101000203166002900480601f0160208091040260200160405190810160405280929190818152602001828054600181600116156101000203166002900480156104cf5780601f106104a4576101008083540402835291602001916104cf565b820191906000526020600020905b8154815290600101906020018083116104b257829003601f168201915b5050505050815260200160018201548152602001600282018054600181600116156101000203166002900480601f01602080910402602001604051908101604052809291908181526020018280546001816001161561010002031660029004801561057b5780601f106105505761010080835404028352916020019161057b565b820191906000526020600020905b81548152906001019060200180831161055e57829003601f168201915b505050505081526020016003820160009054906101000a900473ffffffffffffffffffffffffffffffffffffffff1673ffffffffffffffffffffffffffffffffffffffff1673ffffffffffffffffffffffffffffffffffffffff1681525050905084816060019073ffffffffffffffffffffffffffffffffffffffff16908173ffffffffffffffffffffffffffffffffffffffff1681525050838160000181905250828160400181905250600080815480929190600101919050555060019150509392505050565b61064b61084a565b6000600160008481526020019081526020016000206000016001600085815260200190815260200160002060030160009054906101000a900473ffffffffffffffffffffffffffffffffffffffff16818054600181600116156101000203166002900480601f01602080910402602001604051908101604052809291908181526020018280546001816001161561010002031660029004801561072f5780601f106107045761010080835404028352916020019161072f565b820191906000526020600020905b81548152906001019060200180831161071257829003601f168201915b5050505050915091509150915091565b60006001600083815260200190815260200160002060030160009054906101000a900473ffffffffffffffffffffffffffffffffffffffff169050919050565b828054600181600116156101000203166002900490600052602060002090601f016020900481019282601f106107c057805160ff19168380011785556107ee565b828001600101855582156107ee579182015b828111156107ed5782518255916020019190600101906107d2565b5b5090506107fb919061085e565b5090565b608060405190810160405280610813610883565b815260200160008152602001610827610883565b8152602001600073ffffffffffffffffffffffffffffffffffffffff1681525090565b602060405190810160405280600081525090565b61088091905b8082111561087c576000816000905550600101610864565b5090565b90565b6020604051908101604052806000815250905600a165627a7a72305820e4bb48a8c61842487be72cd5d8db13fe7687afb1b21430e074ed3b850ca9900f0029",
  "source": "pragma solidity ^0.4.19;\n\ncontract product {\n    struct object {\n        string ownerName;\n        uint objectId;\n        string productName;\n        address ownerAddress;\n    }\n    uint private objId = 0;\n    mapping(uint => object) products;\n    \n    modifier onlyOwner(uint _objectId) {\n        if(products[_objectId].ownerAddress != msg.sender)\n        revert();\n        _;\n    }\n\n    function getOwner(uint _objectId) public view returns (string _name, address ownerAddress) {\n        return (products[_objectId].ownerName, products[_objectId].ownerAddress);\n    }\n\n    function getOwnerAddress(uint _objectId) public view returns (address ownerAddress) {\n        return products[_objectId].ownerAddress;\n    }\n    \n    function setOwner(uint _objectId, string _newOwnerName, address _newOwnerAddress) \n    onlyOwner(_objectId) public returns (bool success) {\n        products[_objectId].ownerName = _newOwnerName;\n        products[_objectId].ownerAddress = _newOwnerAddress;\n        return true;\n    }\n\n    function addProduct(address _ownerAddress, string _ownerName, string _productName) public returns (bool success) {\n        object memory obj = products[objId];\n        \n        obj.ownerAddress = _ownerAddress;\n        obj.ownerName = _ownerName;\n        obj.productName = _productName;\n        objId++;\n        return true;\n    }\n}",
  "sourcePath": "/home/helios/Desktop/bidfinex/contracts/inventory.sol",
  "compiler": {
    "name": "solc",
    "version": "0.4.19+commit.c4cbbb05.Emscripten.clang"
  },
  "schemaVersion": "2.0.0",
  "updatedAt": "2018-03-28T14:21:40.529Z"
}